:020000040800F2
:10000000802B00203502000807320008ED30000880
:1000100005320008A51B0008A138000800000000F8
:10002000000000000000000000000000253500086E
:10003000A71B00080000000009320008273500084F
:100040004F0200084F0200084F0200084F0200084C
:100050004F0200084F0200084F0200084F0200083C
:100060004F0200084F0200084F0200084F0200082C
:100070004F0200084F0200084F0200084F0200081C
:100080004F0200084F0200084F0200084F0200080C
:100090004F0200084F0200084F0200084F020008FC
:1000A0004F0200084F0200084F0200084F020008EC
:1000B0004F0200084F0200084F0200084F020008DC
:1000C0004F0200084F0200084F0200084F020008CC
:1000D0004F0200084F0200084F0200084F020008BC
:1000E0004F0200084F0200084F02000800F002F81B
:1000F00000F090F80AA090E8000C82448344AAF132
:100100000107DA4501D100F085F8AFF2090EBAE82F
:100110000F0013F0010F18BFFB1A43F0010318473B
:100120005860000078600000103A24BF78C878C199
:10013000FAD8520724BF30C830C144BF04680C60ED
:10014000704700000023002400250026103A28BF35
:1001500078C1FBD8520728BF30C148BF0B60704739
:100160006E2900F09D81702900F0E782662905F074
:10017000AF84652905F0AC84672905F0A98461295D
:1001800005F0A88403681B0A28BF41F08001692993
:1001900000F04A81642900F04781752900F044810C
:1001A0006F2900F07582782900F0B382E92900F008
:1001B0000F82E42900F00C82F52900F00982EF2972
:1001C00000F07282F82900F0B2820368DB0928BFD0
:1001D00041F08001632900F0B387732900F0B887EC
:1001E000E32900F0C387F32900F0C8870020704797
:1001F0001FB501F015F804000020002105F052FCA5
:10020000401C60600020002105F036FCE0601FBD4E
:1002100010B510BD00F0D6FF1146FFF7E9FF04F05E
:1002200093FF01F0AFF803B4FFF7F2FF03BC01F056
:10023000F7F800000948804709480047FEE7FEE755
:10024000FEE7FEE7FEE7FEE7FEE7FEE7FEE7FEE786
:1002500004480549054A064B7047000089350008E7
:10026000ED00000880250020802B00208027002042
:1002700080270020B2F120030AD5C2F1200320FA22
:1002800002F001FA03F321FA02F140EA0300704799
:1002900021FA03F04FF00001704700007CB51D46C5
:1002A00016460C00009001D02044401E074B7B44B2
:1002B0002A4669460190304600F00BF905461CB10C
:1002C0000020694600F018F928467CBD5102000064
:1002D00010B5431C02E010F8011B71B18107FAD17F
:1002E0004FF0013202C88C1A8C4314EAC211F9D0C3
:1002F000C01A0A0603D0C01E10BDC01A10BD0A04E1
:1003000001D0801E10BD0902FCD0401E10BD4FF070
:10031000000200B5134694469646203922BFA0E855
:100320000C50A0E80C50B1F12001BFF4F7AF090761
:1003300028BFA0E80C5048BF0CC05DF804EB890052
:1003400028BF40F8042B08BF704748BF20F8022B95
:1003500011F0804F18BF00F8012B704770477047AD
:10036000704770B5044685690068C10601D530261E
:1003700000E02026C00707D070BDD4E90121304637
:100380009047206A401C20626D1EF6D570BD70B586
:10039000044685690078C00707D170BDD4E9012102
:1003A00020209047206A401C20626D1EF6D570BD4B
:1003B00009684A0501D540B27047C905FCD500B2AD
:1003C000704709684A0501D5C0B27047C905FCD518
:1003D00080B2704770B50C460546012A05D02878D2
:1003E000800600D5EA69002302E0012305E05B1CDA
:1003F000934202D2E05C0028F9D1A869E618C01A3D
:10040000A861286A184428622846FFF7AAFF04E07A
:10041000D5E9012114F8010B9047B442F8D32846DE
:10042000FFF7B5FF70BD00002DE9F041064600243E
:1004300010687529314616A510D0FFF7B9FF0028BE
:1004400002DA404213A507E031688A0701D512A5F8
:1004500002E0490704D511A5012401E0FFF7B1FF2F
:1004600000210A2206F1240709E0B0FBF2FCB0FBF0
:10047000F2F302FB1C00303078541846491C002867
:10048000F3D123462A463046BDE8F04100F069BA70
:10049000000000002D0000002B00000020000000E4
:1004A00011680268006A530501D508700AE0D30597
:1004B00001D5088006E0130603D5C217C1E9000282
:1004C00000E008600120704701694A1C0261087859
:1004D000704700B58FB0CDE9013100210591054984
:1004E0007944CDE903101146684600F031F90FB0A8
:1004F00000BD0000E5FFFFFF0A6802F8010B0A607B
:100500007047D1E900239A4202D2531C0B6010704D
:10051000704700002DE9FF5F15468A460446DFF864
:10052000AC80F8440027D8E900103E46CDE9001021
:1005300010E03AF816106A4602A800F023FE411CAB
:1005400007D02178890603D5E269391891420DD880
:100550000744761C2078800602D5E069B84205DDA4
:10056000AE42E6DB3AF816000028E2D1A069C01BD3
:10057000A0612046FFF7F5FED8E90010CDE9001094
:10058000002017E03AF818106A4602A800F0FAFDB9
:10059000B0F1FF3F81460BD000250DF1080B05E0BF
:1005A000D4E901211BF8050090476D1C4D45F7D398
:1005B00008F10100B0428046E4DB206A3844206242
:1005C0002046FFF7E4FEBDE8FF9F0000565B0000F9
:1005D0002DE9F0418046D21D22F007020025D2E924
:1005E0000002F52915A614D0011E72F1000106DAE9
:1005F0000023D0EB030063EB020211A608E0D8F859
:1006000000108B0701D50FA602E0490701D50EA601
:1006100001251146002408F1240704E000F05CF9EC
:1006200030323A55641C50EA0102F7D12B4632466B
:1006300021464046BDE8F04100F093B900000000BB
:100640002D0000002B0000002000000030B400212D
:1006500000F1240408E002F00705D208303542EA30
:100660004372DB086554491C52EA0305F3D1046860
:10067000002310A2250708D504F020040C4304D061
:10068000C46901230CA2641EC46130BC00F069B9C6
:1006900010B5044621461068FFF793FE0246204637
:1006A000BDE810400023D1E7D21D22F00701D1E9B7
:1006B0000023CBE70000000030000000F0B40D463E
:1006C0000188090502D5214C7C4402E01F4C7C4482
:1006D0000E34002100F1240608E002F00F07120991
:1006E000E75D42EA03721B097754491C52EA03078B
:1006F000F3D102780023120704D5702D06D009B17A
:10070000022311342246F0BC00F02BB9012310342F
:10071000F8E770B504460D4621461068FFF751FE14
:10072000024629462046BDE870400023C6E7D21D98
:1007300022F00703D3E90023C0E70368126843F0FF
:10074000200303600823C3610023B7E7B859000002
:100750002DE9F05F894604464FF0000ADFF874B1D6
:10076000FB44C0F820A02046E1688847002874D0E8
:10077000252806D0D4E901219047206A401C206238
:10078000F1E700265F462046E168884720280546B5
:1007900007DB312D05D2781910F8200C08B106437B
:1007A000F1E7B00701D526F00406C4F81CA0002725
:1007B000C4F818A02A2D09D0284603F096F838B3BB
:1007C00004EB8708303DC8F8185019E059F8041BAD
:1007D000204604EB87029161E1688847012F0546B6
:1007E00018D1E069002820DA26F020061DE0D8F8AC
:1007F000180000EB800005EB40003038C8F8180006
:100800002046E1688847054603F06FF80028EED1DE
:10081000012F0AD02E2D08D12046E16888477F1C81
:100820000546022F46F02006C4DBA069002803DA43
:10083000404246F00106A061F00701D026F0100604
:100840006C2D0BD0682D09D04C2D39D06A2D35D0A8
:10085000742D35D07A2D33D016E038E0E1682F467C
:1008600020468847B842054609D16C2F26D04FF460
:100870008060E168064320468847054604E06C2F07
:100880001AD04FF4807006430DB3A5F1410019282A
:1008900002D8203546F400664A462946204626609E
:1008A0004E46FFF75DFC80B101280BD0F61D26F007
:1008B000070000F1080956E74020E4E78020D8E768
:1008C0000020D6E706F104094DE7284652E7206AE2
:1008D000BDE8F09F4859000030B5B0F10A024FEA78
:1008E000900E71F100034EEA817EB0EB0E0061EBD9
:1008F00091014FEA101E4EEA017E10EB0E0041EB13
:1009000011114FEA102E4EEA016E10EB0E0041EB72
:1009100011214FEA104E4EEA014E10EB0E0041EB52
:100920001141401841F100014FEAD00040EA417006
:100930004FEAD10110EB80054FEA810444EA90743C
:1009400044EB01046D1944EB0404521BA3414FF026
:10095000000348BF0A3200D530BD401C41F1000100
:1009600030BD2DE9F0470D4699469246044600F108
:1009700024080168880604D5E06921F0100121608F
:1009800000E00120A84201DD471B00E00027A1692B
:100990007A1902EB0900081AA0612078C00602D477
:1009A0002046FFF7DEFC002608E0D4E901211AF812
:1009B00006009047206A401C761C20624E45F4DBFE
:1009C0002078C0060AD52046FFF7CBFC06E0D4E924
:1009D000012130209047206A401C2062381EA7F178
:1009E0000107F4DC07E0D4E9012118F8050090477D
:1009F000206A401C2062281EA5F10105F3DC204678
:100A0000FFF7C5FC2078000602D50220BDE8F0877C
:100A10000120FBE770472DE9FF4F0C461E464FF0C3
:100A2000FF378BB0D2E90001DDF860800A908A467A
:100A3000C1F30A5505B93D46002108464FF00000B4
:100A4000BAF1000F00F4400005DA00EB80004FF42B
:100A5000400101EA50004FEA9059B9F1010F00DD61
:100A6000B9460A9850EA4A000ED044F61050A5F252
:100A7000FF3545432F14B8F1000F1ED07542291ED3
:100A80001EDDC9F100021CE0B8F1010F4FF00000BB
:100A900001D0302103E0F24305E02154401CB04274
:100AA000FBDB30460022002121540B99C1F808805D
:100AB000C1E900200FB0BDE8F08FBD1B6D1CDEE763
:100AC0004A4600DA694206A800F0EEFB06AB93E85E
:100AD000070003AB83E8070050460A9900F0A7FC23
:100AE0008DE80700A0F500501F3800900398002DF6
:100AF00009DD42F21F014A46084403A903906846F3
:100B000000F006FF08E0A0F500504A461F3803A990
:100B10000390684600F010FF8DE807000004000C09
:100B200003D04FF0FF30410800E01046B8F1000F4D
:100B300003D00022009215461EE0751E05D4FFF773
:100B4000CBFE303262556D1EF9D5B3460122084303
:100B500002D000227F1C04E02078302801D100223E
:100B60007F1E002A099786D01DE0112D07DAFFF7B6
:100B7000B3FE303262556D1C50EA0102F5D10843D4
:100B800002D00098C8B10EE00021681E05E0235C89
:100B9000625C63542254401E491C8142F7DBAB4621
:100BA000A81B401E0990002004F80B000B98099A1E
:100BB000C0F80880C0E9002B7CE711264FF0000840
:100BC00059E72DE9F04F88460446D21D22F007016F
:100BD00091B0D1E90001CDE90A0102F062FE0246BE
:100BE0000B98C00F01D02D2007E02068810701D5A8
:100BF0002B2002E0202101EAC000032A099001D045
:100C0000072A05DB03464146204600F00DFB0BE1B9
:100C10002078800601D5E06900E00620B8F1650F74
:100C2000814606D0B8F1660F18D0B8F1670F70D1C1
:100C300031E00020B9F1110F009001DB112301E038
:100C400009F101030AAA01A90CA8FFF7E4FEDDE9F6
:100C50000C70002609F10105834647E001204B4650
:100C600000904FF000470AAA01A90CA8FFF7D3FE95
:100C7000DDE90DB00C995D46002610B909F10100BF
:100C80000D18B9EB050003D4C0F1FF3609F10105D9
:100C9000A5EB09002BE0B9F1010F01DA4FF00109D2
:100CA0000020B9F1110F0090484601DD112300E04A
:100CB00003460AAA01A90CA8FFF7ADFEDDE90C70F6
:100CC0004D4600268346207800070AD4AB4500DA5B
:100CD0005D4601A8012D04DD411911F8011C3029E0
:100CE00007D04F4502DA17F1040F04DA01208246DB
:100CF0000FE06D1EEEE7002F02DCED1B3E4403E02B
:100D0000781CA84200DD7D1CB81B00F1010A4FF0E1
:100D100000472078000703D4AA4501DB4FF0FF3AD3
:100D20000021B7F1004F0DF143088DF8431024D096
:100D300002202B23002F01DA7F422D230A21021EDD
:100D4000A0F1010000DC5FB197FBF1FC97FBF1F231
:100D500001FB1C7C17460CF1300C08F801CDEEE7C6
:100D6000A8F1010003702188090501D5452100E0A3
:100D70006521A0F1010800F8011C09980FA9A1EB59
:100D80000807FF1D00B10120411901EBEA70A169BC
:100D90003844081A401EA0612078C00602D42046BC
:100DA000FFF7DFFA099828B1D4E901219047206ABA
:100DB000401C20622078C00622D52046FFF7D1FAD9
:100DC0001EE0002E04DBB34502DD01A8805D00E0DB
:100DD0003020D4E901219047206A401C2062761C13
:100DE000AAF101005FEA000A0AD100F019FAC0680E
:100DF0000168405CD4E901219047206A401C2062D0
:100E0000281EA5F10105DCDC07E0D4E9012118F872
:100E1000010B9047206A401C2062381EA7F1010791
:100E2000F3DC2046FFF7B3FA032011B043E60000DD
:100E30002DE9F04F04460D46D21D22F0070089B07F
:100E4000D0E9009248461746394602F02AFD02468C
:100E5000F80F01D02D2307E02068810701D52B234F
:100E600002E0202101EAC0038DF820300BB10120FF
:100E700000E00020032A824601D0072A04DB29462D
:100E8000204600F0D1F93DE12078800601D40D25FF
:100E900000E0E569C7F30A560D2D49DA00214FEA53
:100EA000175B08464FF00000002F00F4400007DAFF
:100EB00000EB80004FF4400100EBD07001EA6000CD
:100EC0008115012901DD4FF0FF3100224FEA850C29
:100ED000BCF1180F06D31346ACF118004FF0805246
:100EE000C24003E04FF4801323FA0CF30CF10C0C16
:100EF000BCF1200F04D3ACF1200C09FA0CF001E096
:100F000007FA0CF000294FF0004801DD18B90FE096
:100F10000ED140450CD319EB02095F4121B9404580
:100F200002D19F4329EA0209BBEB175F00D0761C70
:100F30002088000502D57B48784402E0794878444F
:100F4000193808AA302302F80A30037C0AF101019B
:100F5000002E0AF1020A53546A4602DC4FF03001B7
:100F600001E04FF031014FF001088DF8001002D080
:100F7000A6F2FF3603E059EA470100D06A4E002D81
:100F800002DC2178090704D54FF002082E218DF8E4
:100F90000110C44600210BE0C7F303433F01C35CCB
:100FA000491C6D1E02F80830052908F1010801DA14
:100FB000002DF1DC00210CE000EB1973491C1B78BB
:100FC0006D1E082902F808304FEA091908F10108D6
:100FD00001DA002DF0DC2178890602D514E0A8F1B1
:100FE0000108E04505DD02EB080111F8011C30297C
:100FF000F5D0B8F1000F07DD02EB080111F8011C74
:101000002E2901D1A8F10108002D05DD3E2102F8AD
:1010100008106D1E08F10108407C002E02F808003F
:1010200008F1010804DA2D20764202F8080002E0F7
:101030002B2002F808000A214FF47A70864208F14A
:1010400001080BDB96FBF0F3303302F8083096FB17
:10105000F0F308F1010800FB136601E0642E0CDBDD
:10106000642096FBF0F3303302F8083096FBF0F37F
:1010700008F1010800FB136601E00A2E06DB96FB6F
:10108000F1F0303002F8080008F1010896FBF1F0A9
:1010900001FB1060303002F80800A16908F1010876
:1010A00008EB050202EB0A00081AA0612078C006CE
:1010B00002D42046FFF755F9216A08AE01EB0A0079
:1010C000206204E0D4E9012116F8010B9047BAF13F
:1010D000010AF7D22078C00602D52046FFF741F971
:1010E0006E4609E016F8010B3E280FD0D4E9012125
:1010F0009047206A401C2062B8F10108F2D22046D5
:10110000FFF745F909B00320BDE8F08F206A2844B5
:10111000206203E0D4E90121302090476D1EEBD31B
:10112000F8E700009451000002FCFFFF10B543698E
:1011300013B1AFF3008001E0FFF74CF9012010BDBF
:10114000127800F124010A7000224A700122EDE7B2
:1011500011684FF0FF32E9E710B5436913B1AFF3FF
:10116000008001E0FFF7D6F9012010BD128800F1E0
:10117000240182840022C2840122EDE711684FF02D
:10118000FF32E9E770B516460C46054600F040F818
:10119000036893F80101012806D0FF2C0FD8185DD1
:1011A00068B101202C7070BDD3F80701324621468A
:1011B00003F2071303442846BDE8704018474FF078
:1011C000FF3070BD754600F0E7F8AE460500694691
:1011D000534620F00700854618B020B5FFF738F8D1
:1011E000BDE820404FF000064FF000074FF0000828
:1011F0004FF0000B21F00701AC46ACE8C009ACE8A9
:10120000C009ACE8C009ACE8C0098D4670470000D1
:1012100010B500F005F8001D10BD00BF89480000A2
:10122000004870473C2500202DE9F0411F46044648
:1012300003260168072A01F4006004DB08B116A543
:1012400005E016A503E008B115A500E015A521F0FD
:1012500010002060A069C01EA0610FB1401EA061F7
:101260002046FFF77EF84FB1D4E901213846904778
:10127000206A401C2062C01C206206E0206AFAE757
:10128000D4E9012115F8010B9047761EF8D22046CB
:10129000FFF77DF8BDE8F0814E414E006E616E00B3
:1012A000494E4600696E66002DE9F04781461646B4
:1012B0008AB0334878440DC88DE80D003048784432
:1012C000801C03AC0DC884E80D0041F69B30084437
:1012D000372190FBF1F290FBF1F5A5F1800501FBC0
:1012E00012041B3C02D56442012000E00020DFF81C
:1012F00090A080460027FA44AAF1BE0A0DE0E0075C
:1013000009D03246684607EB47010AEB810100F03D
:1013100013FB8DE8070064107F1C002CEFD1184FE1
:101320007F44AC3F18E0E80714D007EB04100DF140
:10133000180A90E80E008AE80E00C068F04201D159
:1013400098190890324606A903A800F0F5FA03ABF5
:1013500083E807006D10641C002DE4D13246694615
:10136000B8F1000F03A802D000F0D2FA01E000F0BB
:10137000E3FAC9E90001C9F808200AB0BDE8F0871E
:10138000A84E000010B50446AFF300802046BDE82B
:101390001040FEF748BF0000004870471C250020A1
:1013A0004FF0013C50F8042B51F8043B9A4221D1F4
:1013B000A2EB0C03934313EACC1317D150F8042B80
:1013C00051F8043B9A4215D1A2EB0C03934313EA64
:1013D000CC130BD150F8042B51F8043B9A4209D19D
:1013E000A2EB0C03934313EACC13DBD04FF00000C5
:1013F000704700BFD01A01BAB1FA81F101F01801AB
:1014000022FA01F0CB40C1F12001DBB2C0B2C01A18
:101410002CFA01F3D11A914311EAC311E6D17047B6
:1014200001491820ABBEFEE72600020070475FEAC4
:10143000400C08BF91F0000F4FEA8C234FEAC12205
:1014400043EA51514FEA1C5018BF00F5F0404FEAF3
:10145000300018BF41F000415FEA6C5C00F0298069
:10146000BCF1FF3F08BF40F080407047130C06BF3F
:1014700012044FF0100C4FF0000C130E04BF1202B8
:101480000CF1080C130F04BF12010CF1040C930FA4
:1014900004BF92000CF1020CD30F04BF52000CF1F8
:1014A000010C11464FF00002A0F11F00A0EB0C0050
:1014B000704711F0004F08BF704731F000413FF412
:1014C000D5AF0B0C06BF09044FF0100C4FF0000C09
:1014D0000B0E04BF09020CF1080C0B0F04BF09012D
:1014E0000CF1040C8B0F04BF89000CF1020CCB0F24
:1014F00004BF49000CF1010CCCF12003A0EB0C005F
:1015000022FA03F302FA0CF241EA030100F10100AE
:10151000704720F07F4C80EA030023F07F47ACEB5C
:10152000070303F57C5300F0004003F1FF032DE9AE
:1015300080494FEA154B09B44FEA144325EA0B4E94
:1015400024EA03480FF2042606EB132749083E78E5
:101550005FEA320203FB0667C7F5000707FB06F6E2
:101560004FEA54374FEAD64606F1020607FB066CEF
:10157000CCF1005C4FEA1C472CEA074C07FB06F451
:101580000CFB06F504EB15464FEA961634BF002017
:101590004FF000404FEAD13706FB07FC4FEA1C4CE6
:1015A0000CFB0BF7D21B03FB0CF761EB07010CFBE9
:1015B0000EF7B0EB074072EB17420CFB08F734BF95
:1015C000A2EB0742B2EB074261EB17414FEA0C4432
:1015D0004FEA910706FB07FC4FEA1C4C0CFB0BF78C
:1015E000B0EBC74072EB573203FB0CF734BFA2EBF2
:1015F000C742B2EBC74261EB57310CFB0EF7B0EBC1
:10160000C70072EB57720CFB08F734BFA2EBC7029E
:10161000B2EBC70261EB5771039F4FEA816141EA68
:10162000921104EBCC044FEAD1374FEA826206FBF9
:1016300007FC42EA90124FEA80604FEA1C4C0CFB18
:101640000BF7D21B03FB0CF761EB07010CFB0EF74A
:10165000B0EB074072EB17420CFB08F734BFA2EB6C
:101660000742B2EB074261EB17414FEA8C554FEA54
:10167000910704EB9C2406FB07FC4FEA1C4C0CFB77
:101680000BF7B0EBC74072EB573203FB0CF734BFDC
:10169000A2EBC742B2EBC74261EB57310CFB0EF72E
:1016A000B0EBC70072EB57720CFB08F734BFA2EB2C
:1016B000C702B2EBC70261EB577115EB4C254FEA3D
:1016C000816141EA92114FEA82624FEAD13742EAE0
:1016D000901206FB07FC44F100044FEA80604FEAD9
:1016E0001C4C0CFB0BF7D21B03FB0CF761EB070147
:1016F0000CFB0EF7B0EB074072EB17420CFB08F740
:1017000034BFA2EB0742B2EB074261EB174115EB86
:101710001C154FEA813141EA92414FEA823242EA96
:1017200090424FEA80304FEA0C7644F1000448EAD8
:1017300003434EEA0B484FF0000EB2EB080C71EB7E
:10174000030724BF624639464EEB0E0E4FF0000BE6
:101750000018524149414BEB0B0BB2EB080C71EBFB
:1017600003077BF1000B24BF624639464EEB0E0E99
:101770004FF0000B0018524149414BEB0B0BB2EB01
:10178000080C71EB03077BF1000B24BF624639465E
:101790004EEB0E0E51EA020718BF46F0010616EB9B
:1017A0000E7655F1000254F1000103D5BDE8890120
:1017B000BDE80088BDE88901BDE80048B61952417E
:1017C00041EB0101A3F10103704780807F7E7D7CA6
:1017D0007B7A7978777676757473727171706F6EC3
:1017E0006E6D6C6C6B6A6A6968686766666564646E
:1017F000636362616160605F5F5E5E5D5D5C5C5BF8
:101800005B5A5A5959585857575656555555545466
:10181000535352525251515050504F4F4F4E4E4DC4
:101820004D4D4C4C4C4B4B4B4A4A4A494949484810
:101830004847474747464646454545444444444350
:1018400043434342424242414141002B26D4770068
:1018500021D01CB54FEA370703B44FF010004FF00A
:1018600010014FF000000FBCBDE810400BF1010B60
:10187000BBF1010F08BF5FEA170722BF12F1010297
:1018800011F101014FF0004143F1000300F000406D
:1018900043EA00007047F9D35708DAE746EA0646FC
:1018A00013F1400F4FEA16461FDD13F1200FDFBF83
:1018B00016430A46002120335B42C8D0C3F12007FB
:1018C00046EA064602FA07F74FEA164646EA0706D0
:1018D000C3F1200722FA03F201FA07F721FA03F114
:1018E0004FF0000342EA0702B1E746EA020646EA81
:1018F00006464FEA164646EA0106BCBF46EA0646D9
:10190000360C4FF000034FF000024FF000019EE74D
:101910002DE9C048934630B491E8380007C831EA51
:10192000400C48BF34EA430C03D5FFF7F2FDFFF744
:101930008CFFF0BCBDE800882DE9C048934630B468
:1019400091E8380007C810F0804F08BF13F0804FAF
:1019500003D100F005F8FFF778FFF0BCBDE8008880
:1019600020F07F4780EA030023F07F4C07EB0C0355
:10197000A3F57C5300F00040A3F1FE0392F0000FAA
:1019800000F0B38095F0000F00F077802DE9014959
:101990004FEA11404FEA144621EA004800FB06FCDA
:1019A00024EA064708FB06F607FB08F800FB07F7E2
:1019B00018EB06484CEB164C4FEA124B18EB074855
:1019C0004FEA15464CEB174022EA0B4E0BFB06FC88
:1019D00025EA06470EFB06F607FB0EFE0BFB07F794
:1019E0001EEB064E4CEB164C4FF000061EEB074E5E
:1019F0004CEB174B18EB0B0840F1000018EB0E0BEB
:101A000058EB000840F100008F1A4FF000013CBF76
:101A1000C943661B14BFB5EB040C00213CBFC9438E
:101A2000F61B4FEA17444EEA8E0E27EA04454FEAAA
:101A30001C4704FB07622CEA074C05FB07F70CFB6D
:101A400005F604FB0CFC16EB074642EB174216EBBF
:101A50000C4642EB1C421BEB060658EB02024141CE
:101A600046EA9E0601D5BDE80189B619524141EB0F
:101A70000101A3F10103BDE801894FEA14454FEAD2
:101A8000114724EA054621EA074C05FB07F406FB4B
:101A900007F70CFB06F105FB0CFC11EB074144EBCF
:101AA00017444FEA124711EB0C4144EB1C4422EA65
:101AB000074C05FB07F206FB07F70CFB06F605FBD8
:101AC0000CFC16EB074642EB174216EB0C4642EBBA
:101AD0001C456A1854F1000148BF7047B6195241BD
:101AE00041EB0101A3F10103704795F0000F37D0DE
:101AF0004FEA11424FEA144721EA024624EA074C12
:101B000002FB07F106FB07F70CFB06F402FB0CFCDB
:101B100014EB074441EB17414FEA154714EB0C4413
:101B200041EB1C4125EA074C02FB07F506FB07F7D2
:101B30000CFB06F602FB0CFC16EB074645EB1745C3
:101B400016EB0C4645EB1C42121951F1000148BF3F
:101B50007047B619524141EB0101A3F101037047EF
:101B60004FEA14454FEA114724EA054621EA074C9B
:101B700005FB07F106FB07F70CFB06F24FF000062A
:101B800005FB0CFC12EB074241EB174112EB0C4238
:101B900051EB1C4148BF7047921841EB0101A3F182
:101BA00001037047FEE77047002200F001B8000013
:101BB00030B50E4B054601205C7A012C15D8587AB9
:101BC00000241C54587A03EB800045605D7A03F1D1
:101BD00008002A54587A421C5A72303008703A2051
:101BE00048702F208870CC70002030BD1025002058
:101BF00006490020C8610648016941F004010161FD
:101C0000016941F04001016170470000D8220020C5
:101C100000200240064A0021D16106490A6942F0CB
:101C200002020A614861086940F04000086170479B
:101C3000D822002000200240044B0022DA61044A2E
:101C4000136943F00103136101807047D82200201B
:101C50000020024014480022C168CB06134904D575
:101C6000CA6942F00202CA611022C3685B0705D547
:101C7000CB6943F00103CB6142F00402C369DB0787
:101C800007D0CB6943F00403CB61C16921F00101A6
:101C9000C161A2F58071013901D0C2607047C1698C
:101CA00021F00101C161704700200240D8220020CC
:101CB00070B5054600F080FA0646114C09E0681C34
:101CC00007D025B100F078FA801BA84201D9032083
:101CD00070BDE068C007F2D1E068800601D5202021
:101CE000E060E068C00605D4E069C00702D1E068A2
:101CF000400703D5FFF7AEFF012070BD002070BD87
:101D000000200240064810B54FF0FF31016100226B
:101D10000261C160C26000F08FFA002010BD0000B7
:101D20000010024070B5044600F046FA0546601CFB
:101D300002D004480078044400F03EFA401BA04260
:101D4000FAD370BD280000202DE9F047054626484B
:101D50000F460126017E01290FD00121814601761F
:101D60002868DFF888804CF25034022808D0A24658
:101D70002046FFF79DFFA8B131E00220BDE8F087C3
:101D80002046FFF795FF08BB0120FFF731FF2046F3
:101D9000FFF78EFFD8F81010064621F00401C8F8AE
:101DA00010101CE04FF0FF303860AC6811E02046A6
:101DB000FFF730FF5046FFF77BFFD8F81010060002
:101DC00021F00201C8F8101001D03C6007E004F5D2
:101DD0008064D5E9020100EB8120A042E7D8002110
:101DE00089F818103046C9E7D822002000200240A8
:101DF0000348016941F08001016100207047000043
:101E0000002002402DE9F05F07461C488846002468
:101E1000017E15461E46012909D001218146017621
:101E20004CF2503A5046FFF743FF18B122E002202F
:101E3000BDE8F09F012F02D0022F00D00427D34627
:101E4000DFF83CA0220128463146FEF713FA81B2A2
:101E500008EB4400FFF7F0FE5846FFF729FFDAF8D9
:101E6000102022F00102CAF8102018B9641CE4B254
:101E7000BC42E7D3002289F81820D9E7D8220020F5
:101E800000200240064900200A69120607D5054ACB
:101E90004A60054A4A600969090600D50120704771
:101EA0000020024023016745AB89EFCD2DE9F043C7
:101EB00000233E4F0F2573E001229A400A406DD067
:101EC00023F00304E619D6F808809C074FEA147C37
:101ED00005FA0CF909EA0804DFF8D480404502D17C
:101EE0004FF0000816E0DFF8CC80404502D14FF0FB
:101EF00001080FE0DFF8C080404502D14FF0020832
:101F000008E0DFF8B880404502D14FF0030801E057
:101F10004FF0040808FA0CF8A04522D1284CD4F858
:101F200000C02CEA020CC4F800C0241DD4F800C084
:101F30002CEA020CC4F800C0214C0C34D4F800C0C8
:101F40002CEA020CC4F800C0241FD4F800C02CEA0C
:101F5000020CC4F800C0D6F808C02CEA090CC6F878
:101F600008C0FF2A01D8064601E000F104064FEA46
:101F7000830401D9A4F12004D6F800C005FA04F8BE
:101F80002CEA080C4FF0040808FA04F84CEA080C94
:101F9000C6F800C0C46824EA0204C46003F1010367
:101FA00031FA03F288D1BDE8F0830000000001405F
:101FB00000080140000C01400010014000140140E5
:101FC000000401402DE9F84FDFF8B8910024A9F191
:101FD000040B23460F2709F1040AABF1040EC9E0F4
:101FE0000125A5402A40AA427DD1674ED1F804C000
:101FF000ACEB0608B44532D014DCBCF1030F3AD088
:1020000009DCBCF1000F2AD0BCF1010F1CD0BCF1DF
:10201000020F31D11DE0BCF1110F17D0BCF1120F2E
:102020002AD119E0B8F5881F19D006DCB8F5803F31
:1020300015D0B8F5801F1FD111E0B8F5001F0ED0E4
:10204000B8F5041F18D10AE0CB6815E0CB681B1D5A
:1020500012E0CB6808330FE0CB680C330CE08B68E0
:102060002BB1012B4FF0080303D0456104E004239A
:1020700002E0056100E00023FF2A01D8064601E0E6
:1020800000F104064FEA840501D9A5F12005D6F830
:10209000008007FA05FC28EA0C0803FA05F548EA6F
:1020A0000508C6F800804D68ED0062D5374DAE6971
:1020B00046F00106AE61AD6924F0030605F00105A6
:1020C0000095334D06EB050CDCF80850A607360FDB
:1020D00007FA06F825EA0805DFF8B880404503D17D
:1020E0004FF0000817E044E0DFF8AC80404502D133
:1020F0004FF001080FE0DFF8A480404502D14FF017
:10210000020808E0DFF89880404502D14FF003084C
:1021100001E04FF0040808FA06F848EA0508CCF890
:1021200008804D68D9F80060ED024D4601D5164390
:1021300000E096432E604D68DAF80060AD02554627
:1021400001D5164300E096432E604D68DBF8006031
:10215000AD035D4601D5164300E096432E604D6801
:10216000DEF80060ED03754601D5164300E09643A6
:102170002E60641C0D682A46E5407FF431AFBDE84F
:10218000F88F000008040140000011100010024008
:102190000000014000080140000C01400010014017
:1021A000001401408068084000D0012070470AB147
:1021B000016170470904FBE701488068704700002F
:1021C000280000200248816802781144816070472D
:1021D00028000020074810B5016841F01001016097
:1021E000032000F069F80F2000F006F800F026F850
:1021F000002010BD0020024070B50D4D04464FF484
:102200007A712878B1FBF0F00A490968B1FBF0F067
:1022100000F06DFE48B9102C07D200222146501E56
:1022200000F02AF800206C6070BD012070BD000035
:102230002800002034000020704700000C4808B53A
:10224000816941F001018161816901F00101009121
:10225000C16941F08051C161C06900F080500090B7
:102260000448416821F0E06141F00071416008BD1F
:102270000010024000000140F0B40E4B1B680C46F9
:10228000C3F30223C3F10705042D00D90425191D4A
:10229000072901D2002300E0DB1E012606FA05F122
:1022A000491E214099409E40761E16403143F0BCA5
:1022B00001F00BBB0CED00E0064900F007020868D6
:1022C0004FF6FF03184040EA0220034A104308601B
:1022D000704700000CED00E00000FA050FB49621F5
:1022E00010B503AC0A48FEF712F8234696210848B9
:1022F000029AFDF7D3FF0648FDF7EAFF82B24FF4DA
:102300007A730349034800F0A1FE10BC5DF814FB8A
:102310003C220020980000202DE9F0470F460500E0
:1023200061D0434E306800F00700B84209D23068EF
:1023300020F0070038433060306800F00700B842F2
:1023400051D128683B4C810712D5400703D56068FE
:1023500040F4E06060602878000703D5606840F4CE
:10236000605060606068A96820F0F0000843606019
:102370002878C00728D06868012810D02168022872
:1023800010D0890700292EDA616821F0030101438A
:102390006160FFF711FF804641F288390DE0216846
:1023A0008903EFE78901EDE7FFF706FFA0EB0801DE
:1023B000494502D90320BDE8F0876068696800F0EC
:1023C0000C00B0EB810FEFD1306800F00700B8428D
:1023D0000BD9306820F0070038433060306800F0D7
:1023E0000700B84201D00120E5E72878400705D56D
:1023F0006068E96820F4E0600843606028780007BE
:1024000006D56068296920F4605040EAC100606028
:1024100000F0A6F86168084AC1F30311515CC84096
:102420000649086006480068FFF7E6FE0020C2E79C
:102430000020024000100240EA5A00083400002048
:102440002C0000202DE9F041FFF7B6FE304C054688
:10245000206840F00100206005E000BFFFF7ACFEFF
:10246000401B022843D820688007F7D5206820F059
:10247000F80040F080002060FFF79EFE0025064631
:10248000656041F2883704E0FFF796FE801BB84292
:102490002DD8606810F00C0FF6D11F491D48086058
:1024A0001E480068FFF7A8FE10B10120BDE8F081CA
:1024B000FFF782FE0646206820F08070206004E06E
:1024C000FFF77AFE801B022811D820688001F7D41C
:1024D0006560FFF771FE0646206820F4102020603A
:1024E00007E000BFFFF768FE801B642801D90320C6
:1024F000DCE720688003F5D4206820F48020206089
:10250000606A40F080706062A5600020CEE7000045
:102510000010024000127A00340000202C0000203D
:102520000448054900684968044AC1F30221515C26
:10253000C84070473400002000100240FA5A0008DA
:102540000448054900684968044AC1F3C221515C46
:10255000C84070473400002000100240FA5A0008BA
:102560000E4A51680E4801F00C03042B11D0082BC1
:102570000FD10C48C1F38343C903C05C0AD551682D
:10258000084AC1F34041921E515C054A5043B0FBDA
:10259000F1F07047044948437047000000100240C2
:1025A00000127A00DA5A000800093D002DE9F84FC0
:1025B000040070D02078C04DC00749D06868C0F3CF
:1025C0008100012807D06868C0F38100022809D182
:1025D0006868C00306D52868800339D5606800287C
:1025E000E7D035E06068B0F5803F0BD010B1B0F5B2
:1025F000A02F11D0286820F480302860286820F4AB
:10260000802002E0286840F480302860606890B143
:10261000FFF7D2FD06460AE0286840F480202860D3
:10262000F0E700BFFFF7C8FD801B642873D8286857
:102630008003F7D50CE0FFF7BFFD064605E000BFBD
:10264000FFF7BAFD801B6428F0D828688003F7D410
:1026500020789A4E80074FF001094FF0000839D5D5
:10266000686810F00C0F07D06868C0F3810002287A
:1026700009D16868C00306D42868800714D520698A
:10268000012808D110E02069B0B1C6F80090FFF72A
:1026900093FD074605E00AE1FFF78EFDC01B022807
:1026A000C4D828688007F7D52868616920F0F80049
:1026B00040EAC10028600DE0C6F80080FFF77CFD0D
:1026C000074604E0FFF778FDC01B022823D82868DE
:1026D0008007F7D4207800072CD57948A169D9B1B3
:1026E000C0F80090FFF768FD074604E0FFF764FDBF
:1026F000C01B02280FD8686A8007F7D571484FF4CD
:10270000FA510068B0FBF1F0009000BF0098411E44
:102710000091FAD20EE080E0C0F80080FFF74CFD97
:10272000074604E0FFF748FDC01B022875D8686A19
:102730008007F7D42078400760D5E8690027C000FB
:1027400008D4E86940F08050E861E869012700F0AA
:10275000805000905C480168C90513D40168834625
:1027600041F480710160FFF727FD824606E000BF5B
:10277000FFF722FDA0EB0A0064284ED8DBF800002A
:10278000C005F5D5E06801280AD008B1052813D0A6
:10279000286A20F001002862286A20F0040002E084
:1027A000286A40F001002862E06841F2883B98B155
:1027B000FFF702FD82460BE0286A40F00400286221
:1027C000EEE700BFFFF7F8FCA0EB0A0159455AD825
:1027D000286A8007F6D50CE0FFF7EEFC824605E09C
:1027E000FFF7EAFCA0EB0A0159454CD8286A80079C
:1027F000F6D41FB1E86920F08050E861E06988B341
:102800006968C1F38101022944D00228C6F86080BA
:1028100004D0FFF7D1FC044638E034E0FFF7CCFCED
:10282000074604E0FFF7C8FCC01B02282BD8286825
:102830008001F7D4206AB0F5803F05D16868A168AF
:1028400020F4003008436860D4E90801084369684F
:1028500021F4741108436860C6F86090FFF7ACFC7F
:10286000044606E025E000BFFFF7A6FC001B022897
:1028700009D828688001F7D51BE000BFFFF79CFC52
:10288000001B022802D90320BDE8F88F28688001C8
:10289000F4D40EE00128F7D06868226A00F4803191
:1028A000914204D1616A00F47010884201D0012085
:1028B000EAE70020E8E70000001002400000424282
:1028C00080044242340000200070004010B5040033
:1028D00011D0022084F851002068016821F04001E5
:1028E0000160204600F062F80020606584F8510025
:1028F00084F8500010BD012010BD70B5040009D04F
:10290000606A002540B125616561A56294F85100B7
:1029100040B10CE0012070BD6068B0F5827FF4D05A
:10292000E561F2E784F85050204600F053F80220A9
:1029300084F851002068016821F040010160A088FE
:10294000218900F4827001F404410843A18901F453
:1029500000610843217C01F002010843217D01F060
:1029600001010843218B01F400710843217F01F02C
:102970003801084394F8201001F080010843218DAC
:1029800001F40051084321680860A069042101EAAC
:102990001040216848602068C16921F40061C1616C
:1029A0006565012084F85100002070BD006806496B
:1029B000884208D10548816921F480518161E02174
:1029C0000348FFF773BA704700300140001002401F
:1029D0000008014030B585B00024009401940294B1
:1029E000039400681449884223D11448816941F452
:1029F00080518161816901F480510491816941F0C4
:102A00000401816180690E4D00F004000490A02053
:102A10000090022001900320039069462846FFF7AA
:102A2000D1FA4020CDE90004694628460294FFF718
:102A3000C9FA05B030BD000000300140001002406E
:102A4000000801402DE9F84F044690F851001D465A
:102A500016460F46012838D160684FF00408B0F5DB
:102A6000827F01D1A06830B3FFF7A6FB8246002F1A
:102A700075D0002E73D094F85000012825D04FF067
:102A8000010984F8509084F851804FF00008C4F890
:102A90005480A763A687E687C4F83080A4F8348002
:102AA000A4F83680C4F84080C4F84480A068B0F52B
:102AB000004F0CD015E084F85180009313460A466D
:102AC000204600F01CF9BDE8F88F0220FBE72068E3
:102AD000016821F0400101602068016821F4804113
:102AE000016020680168490603D4016841F0400193
:102AF0000160E068C0B134E020688168C90709D08E
:102B0000007BA16B0870A06B401CA063E08F401E8F
:102B1000E08709E0FFF750FBA0EB0A00A84202D3D0
:102B2000681C01D032E085B3E08F0028E4D11BE0BF
:102B300020688168C90709D0C068A16B0880A06BB4
:102B4000801CA063E08F401EE0870AE0FFF734FBA3
:102B5000A0EB0A00A84203D3681C02D016E012E0E2
:102B60009DB1E08F0028E3D152462946204600F06F
:102B700025FC08B12020606584F8519084F85080CD
:102B8000606D00289FD001209DE7FFE784F85190F9
:102B900084F85080032096E72DE9F84F98461646B2
:102BA0008A460446FFF708FB814694F85100012845
:102BB0001ED1BAF1000F73D0002E71D094F85000DE
:102BC000012815D0012784F85070032084F85100A3
:102BD00000256565C4F830A0A686E686A563A587AE
:102BE000E58765642564A068B0F5004F03D00CE06C
:102BF0000220BDE8F88F2068016821F040010160E3
:102C00002068016841F4804101602068016849063C
:102C100003D4016841F040010160E068B0F5006F45
:102C2000606803D048B3012E27D047E008B1012ED9
:102C30001FD1206B21680088C86006E02068816889
:102C4000890709D5216B0988C160206B801C20632E
:102C5000E08E401EE0860CE0FFF7AEFAA0EB090123
:102C6000414503D3B8F1FF3F03D035E0B8F1000F81
:102C700032D0E08E0028E1D123E0206B216800787B
:102C8000087306E02068816889070AD5216B0978F6
:102C90000173206B401C2063E08E401EE0860DE037
:102CA0002BE0FFF789FAA0EB0901414503D3B8F106
:102CB000FF3F03D010E0B8F1000F0DD0E08E0028E8
:102CC000E0D14A464146204600F0A6FB08B120204C
:102CD0006065A06830B109E084F8517084F8505004
:102CE000032086E72068C1688068009084F85170EE
:102CF00004F8505F60680028F3D0012079E72DE9DF
:102D0000FF4F81B01D46934604464FF001090E9EC9
:102D1000FFF752FA074694F851006168012806D07F
:102D2000B1F5827F3CD1A168C9BB042838D1029893
:102D3000002871D0BBF1000FFBD0002DF9D094F822
:102D4000500001282CD04FF0010A84F850A094F8CC
:102D50005100042802D0052084F851004FF00008EB
:102D6000C4F85480C4F838B0E587A5870299216378
:102D7000E586A586C4F84080C4F8448020680168D0
:102D8000490603D4016841F040010160E068B0F5F4
:102D9000006F606808D0F0B3012D49D081E0FFE7F3
:102DA000022005B0BDE8F08F08B1012D39D1206BAC
:102DB00021680088C860206B801C2063E08E401E64
:102DC000E0862EE02068816889070FD5E18E69B121
:102DD000B9F1010F0AD1216B0988C160206B801CF9
:102DE0002063E08E401EE0864FF000092068816875
:102DF000C9070CD0E18F51B1C068A16B0880A06BEE
:102E0000801CA063E08F401EE0874FF00109FFF7B0
:102E1000D3F9C01B01E00BE067E0B04201D3701CA6
:102E200050D1E08E0028CDD1E08F0028CAD13EE0FD
:102E3000206B216800780873206B401C2063E08EB3
:102E4000401EE0862DE02068816889070FD5E18E5D
:102E500069B1B9F1010F0AD1216B09780173206BB7
:102E6000401C2063E08E401EE0864FF00009206881
:102E70008168C9070CD0E18F51B1C068A16B08709F
:102E8000A06B401CA063E08F401EE0874FF001095B
:102E9000FFF792F9C01BB04202D3701C01D011E0C1
:102EA00086B1E08E0028CED1E08F0028CBD13A4603
:102EB0003146204600F0B0FA50B12020606584F819
:102EC000508012E084F851A084F85080032068E715
:102ED000A06818B92068C1688068009084F851A083
:102EE00084F85080606D0028F1D0012059E710B5BA
:102EF000401EB0F1807F01D3012010BD4FF0E024CF
:102F000060610F21601700F0E0FC0020A061072045
:102F10002061002010BD10B5040015D0242084F8D5
:102F200041002068C16821F40051C160204600F0D2
:102F30003FF80020606484F8410084F8420044F8BF
:102F4000300F6060207410BD012010BD70B504000A
:102F500004D094F84100002510B106E0012070BDB6
:102F600084F84050204600F039F8242084F84100CD
:102F70002068C16821F40051C160204600F02CFB9C
:102F80002068016921F4904101612068416921F0C4
:102F90002A0141612068C16841F40051C160656443
:102FA000202084F8410084F842006563002070BD51
:102FB00000680749884209D10648C16921F4802187
:102FC000C1614FF440610448FEF770BF70470000D4
:102FD0000048004000100240000C014030B585B0B0
:102FE00000240094019402940394006814498842D8
:102FF00024D11448C16941F48021C161C16901F43F
:1030000080210491816941F00801816180690E4D40
:1030100000F0080004904FF48060009002200190BE
:103020000320039069462846FEF7CCFFE814CDE95B
:103030000004694628460294FEF7C4FF05B030BD7F
:103040000048004000100240000C01402DE9F84308
:10305000044690F84100984616460D46202802D0B6
:103060000220BDE8F88385B17EB100206064212094
:1030700084F84100FFF7A0F8A6848146E684A068A2
:103080002027B0F5805F02D003E00120E9E7206946
:1030900010B12E4600250EE000260CE080212046CF
:1030A00000F0F6FAA8B9C6B116F8010B216848601D
:1030B000E08C401EE084E08C4B464FF00002CDF8DF
:1030C00000800028EAD14FF04001204600F0E0FAED
:1030D00040B184F841700320C3E735F8020BC0F318
:1030E0000800E3E784F841700020BAE7FEE700003B
:1030F00010B504490448FEF757FD0249491E0870FF
:1031000010BD0000210000200C0000202DE9F0413E
:1031100086B00024274800940194029403948169A6
:1031200041F010018161816901F010010491816910
:1031300041F020018161816901F0200104918169E0
:1031400041F004018161816901F004010491816908
:1031500041F0080181618069174F00F008004FF4C9
:1031600000550490002229463846FFF720F8DFF882
:103170004C80002201214046FFF719F800950226F5
:1031800001250396CDE9015469463846FEF71AFF3A
:1031900003960095CDE9015469464046FEF712FFBB
:1031A000009669464046CDE90145FEF70BFF06B0A3
:1031B000BDE8F0810010024000100140000C014009
:1031C0000F4810B50D4901604FF482714160002134
:1031D0008160C1604FF400720161C0E905121822DC
:1031E000C0E90721416281620A21C162FFF785FBC4
:1031F000002801D072B6FEE710BD0000003001408B
:1032000040000020FEE7FEE7704700002DE9F04196
:10321000054621484FF6FF740078032800D0490284
:10322000FF22112000F03CF81C4E38B1012211465B
:103230003046FEF7BCFF0120BDE8F081FF2000F022
:1032400005F9FF2808D0FE280BD001221146304690
:10325000FEF7ADFF0220EFE7641E2404240CEDD13D
:10326000F3E700244FF40077FF2000F0EFF8285533
:10327000641CA4B2BC42F7D3FF2000F0E7F8FF20A3
:1032800000F0E4F8012211463046FEF790FFFF20DF
:1032900000F0DCF80020CFE708000020000C01401F
:1032A0007FB540F040008DF80000080E8DF8010059
:1032B000080C8DF80200080A8DF804108DF8030040
:1032C0008DF805204FF6FF74002201210F48FEF70C
:1032D0006EFF012000F068F84FF0FF352B46062204
:1032E00069460B48FFF758FC2B46012202A9084803
:1032F000FFF7A8FB9DF80800000603D5641E240410
:10330000240CF1D19DF8080004B070BD000C014000
:10331000400000202DE9F0410646214800780328AE
:1033200000D04902FF221820FFF7BAFF1D4D38B127
:10333000012211462846FEF73AFF0120BDE8F08140
:10334000FE2000F083F800244FF40077305D00F099
:103350007DF8641CA4B2BC42F8D3FF2000F076F8DC
:10336000FF2000F073F8FF2000F070F800F01F005D
:10337000052806D0012211462846FEF718FF022034
:10338000DCE7FF2000F062F80028FAD001221146A5
:103390002846FEF70CFFFF2000F058F80020CDE78C
:1033A00008000020000C014010B5044602E0FF2098
:1033B00000F04CF8641EE4B2F9D210BDF8B5044632
:1033C00040684FF48273984217D1A0684FF480652B
:1033D000B0F5004F01D0A8420FD12068066826F052
:1033E000400606606068984207D1A068A84204D1F0
:1033F00000920B460022012103E000920B460022BE
:103400008021204600F032F8002804D0606D40F0A2
:10341000200060650320F8BDF8B515460E460B4642
:10342000009204460122022100F020F840B9334600
:10343000002280212046009500F018F8002804D0D2
:10344000606D40F0200060650320F8BD01B582B0DA
:103450004FF0FF300090012301AA02A90248FFF7B4
:103460004EFC9DF804000EBD400000202DE9F843FD
:103470001E46914688460446089DFEF79DFE401B69
:10348000351AFEF799FE074625480068C0F3CB3091
:10349000684338E0701C37D0FEF78EFEC01BA84290
:1034A00003D215B1009860B32CE02068416821F088
:1034B000E00141606068B0F5827F0BD1A068B0F593
:1034C000004F02D0B0F5806F04D12068016821F070
:1034D00040010160A06AB0F5005F09D12068016871
:1034E00021F4005101602068016841F4005101603D
:1034F000012084F85100002084F850000320BDE82A
:10350000F8830025401E00902068816838EA010099
:1035100004D000214945BDD10020F0E70121F9E7A1
:10352000340000207047FEF74DBE30B58FB0282123
:103530006846FCF7ECFE14210AA8FCF7E8FE01211E
:103540000804CDE900100024029402250491CDE97D
:1035500007504FF4E01009906846FFF727F808B1CC
:1035600072B6FEE70F20CDE90A054FF48060CDE981
:103570000C4002210AA80E94FEF7CEFE002801D0CE
:1035800072B6FEE70FB030BD704701680C3151E8EC
:10359000002F22F4907241E80023002BF5D101683E
:1035A000143151E8002F22F0010241E80023002BE2
:1035B000F5D1016B012909D101680C3151E8002FC7
:1035C00022F0100241E80023002BF5D1202180F8E1
:1035D000421000210163704770B50446006801691C
:1035E000E26821F44051114301612169A068084358
:1035F000616908432168CA6841F20C639A43024337
:10360000CA6020684169A26921F440711143416197
:103610001E492068884202D1FEF792FF01E0FEF7C2
:103620007FFF00EBC00101EB0012606864218000A5
:10363000B2FBF0F3B3FBF1F36FF018067343B2FB88
:10364000F0F5B2FBF0F605EB8305322303EB05152D
:10365000B5FBF1F5B6FBF1F605F0F00505EB061547
:10366000B2FBF0F6B2FBF0F0B0FBF1F06FF0180235
:10367000504306EB800003EB0010B0FBF1F0216833
:1036800000F00F002844886070BD00000038014041
:103690002DE9F843984617460D460446089E24E057
:1036A000701C22D0FEF788FDA0EB0800B0421AD8AB
:1036B000CEB12068C168490717D5802D15D0402D9F
:1036C00013D00168C94309070FD401680025406879
:1036D00000902046FFF759FF0820606484F84050AE
:1036E0000120BDE8F8830320FBE72068006835EA85
:1036F000000004D00020B842D2D00020F1E7012021
:10370000F9E700002DE9FC41434D0122114628460E
:10371000FEF74DFD0A20FFF747FE40F2FF1400219F
:1037200095220846FFF7BCFD0646012211462846B1
:10373000FEF73DFDFF20FFF789FE012E04D0641E39
:103740002404240CEBD15AE0002C58D087224FF4EB
:10375000D5710820FFF7A4FD304E012812D00120BA
:103760003070FF224FF400711020FFF799FD012205
:1037700011462846FEF71BFDFF20FFF767FE0020DD
:10378000BDE8FC81002401AFFF20FFF75FFE385544
:10379000641CE4B2042CF7D34FF6FF744FF080485A
:1037A000FF2200213720FFF77BFDFF224146292021
:1037B000FFF776FD0746012211462846FEF7F7FC83
:1037C000FF20FFF743FE27B1641E2404240CE7D139
:1037D00015E0A4B1FF2200213A20FFF761FD00248B
:1037E0006F46FF20FFF732FE3855641CE4B2042C0C
:1037F000F7D39DF80000400603D5032002E0012026
:10380000BEE702203070012211462846FEF7CFFCA9
:10381000FF20FFF71BFEA4E7000C0140080000207A
:1038200039B101290CD0022905D0032906D0042082
:103830007047002070474FF4007003E0012001E062
:103840004FF400401080F4E72DE9F0411D46164684
:103850000F46002409E0311907EB4420FFF7D6FC9E
:1038600010B10120BDE8F081641CAC42F3D300200C
:10387000F8E7002070472DE9F0411D4616460F4637
:10388000002409E0311907EB4420FFF743FD10B194
:103890000120BDE8F081641CAC42F3D30020F8E7BE
:1038A000FEE7490050EAC12018BF04204A0D18BFA6
:1038B00040F0010040F2FF72B2EB515F08BF40F0F0
:1038C0000200012808BF052070470907090E0028DB
:1038D00004DB00F1E02080F80014704700F00F00D6
:1038E00000F1E02080F8141D704730380A2801D21A
:1038F000012070470020704710B5044600F5805045
:1039000000220271521EC262204601F021FE08B15F
:10391000032010BDB4F8FE01A0F52A41553901D0AD
:10392000022010BD94F83600B4F8371040EA0121A7
:103930000848B0EB012F08D094F85210B4F8532087
:1039400041EA0221B0EB012F01D1002010BD01207E
:1039500010BD00000046415400E0401C02780AB14E
:103960008A42FAD1D0B27047F0B50022174B144604
:1039700000F5805002EB420653F826506DB10768FF
:10398000BD420BD103EB860587686E68BE4205D148
:103990002D89C688B54204D000E00124521C022AB9
:1039A000E8D3022A01D079B904E05CB9022909D030
:1039B0001220F0BD02EB420003EB80004089B0F51D
:1039C000807F01D00020F0BD1020F0BDF822002043
:1039D00030B50021064A0C4601EB410352F8235052
:1039E000854201D142F82340491C0229F4D330BD5D
:1039F000F822002000F58050426A006800F58050EF
:103A0000438980784343B1FBF3F0121D02CA19B118
:103A1000884203D3401AF8E7002070471168084431
:103A2000704700F58050891E4269921E8A4201D873
:103A300000207047826A807801FB002070472DE9E2
:103A4000F04180460F0000F5805407D0404601F059
:103A500067F9022809D20120BDE8F081E66816B1B5
:103A60006069B04207D8012605E0411CF4D06169C5
:103A70008142F1D83E46354660696D1CA84202D8A5
:103A80000225022E0AD32946404601F049F938B1F1
:103A9000411CE1D00128DFD0B542EDD10020DBE7A9
:103AA0006FF070422946404601F06EFD30B957B1C3
:103AB0002A463946404601F067FD20B101280DD065
:103AC00001252846C8E7E5602069411CF9D0401E61
:103AD0002061607940F001006071F2E74FF0FF353E
:103AE000EFE700002DE9F84F88460D6800E06D1CF7
:103AF00029782F29FBD05C29F9D000F5805A0024C1
:103B0000DAF820702646A85D761C202817D32F28C7
:103B100015D05C2813D0FF2C31D2012100F0F4FE27
:103B20005FEA00092BD0B9F1800F04D2014668A0EA
:103B3000FFF712FF18BB27F81490641CE3E7AA19DB
:103B4000C8F80020202801D2042516E0002514E042
:103B500007EB440030F8020C20280DD02E280BD0A3
:103B60006CB1002027F814000B222021DAF818008D
:103B700001F0E7FC002606E0641E002CE8D10620D8
:103B8000BDE8F88F761C37F816002028FAD02E28CA
:103B9000F8D01EB145F0030500E0641E2CB107EB20
:103BA000440030F8020C2E28F7D1002081464FF057
:103BB000080B009037F8160006F101065FEA0008CE
:103BC00024D0B8F1200F04D0B8F12E0F04D1A642B2
:103BD00002D045F00305EDE70098584501D2A64212
:103BE0001AD1BBF10B0F0FD0A64201D045F003054F
:103BF0000CD84FF0080000904FEA896026464FF03D
:103C00000B0B4FEA1069D5E745F00305DAF8180009
:103C10000178E52938D039E04046B8F1800F10D35B
:103C2000002100F071FE5FEA000805D02B4901EB8E
:103C3000080010F8800C804645F00205B8F1000F2E
:103C400004D0014626A0FFF787FE20B14FF05F08A1
:103C500045F003050FE0A8F14100192802D849F00A
:103C6000020908E0A8F16100192804D8413049F0A0
:103C700001091FFA80F8DAF81820009902F801808B
:103C80000098401C009095E705210170BBF1080FDA
:103C900003D14FEA89604FEA1069C9F38100032814
:103CA00003D06FEA0901890701D145F00205A90790
:103CB00009D409F00301012901D145F010050128BB
:103CC00001D145F00805DAF81800C572002057E761
:103CD000222A3A3C3E3F7C7F00000000025B000845
:103CE0002B2C3B3D5B5D0000401E022815D20C4B87
:103CF00000EB400203EB82014889B0F5807F05D0DC
:103D000008B1401E80B2488110B104E00020FAE7FB
:103D1000002043F822000020704702207047000076
:103D2000F82200202DE9F14F82B00021029800F026
:103D300007FA00287AD1029DFF2005F580554FF63D
:103D4000FF7A00908146A5F824A02969286801F02F
:103D5000FFFB06000DD16C69207848B1E17AE528B7
:103D600001F03F016DD00A0704D50F2969D107E0A2
:103D7000042671E00F2903D0B9F1000F4AD04FE0BB
:103D8000296A89B3420606D5627B009220F0400082
:103D9000EA888146AA84484535D1627B00988242F0
:103DA00031D101912078A04620F04000401E00EB68
:103DB00080010027DFF8A8B001EBC006012400BF96
:103DC0001BF8071001EB0800008874B100F0B8FD83
:103DD0000446FF2E17D2019830F81600761C00F02A
:103DE000AFFDA0420FD102E02FE050450BD17F1C68
:103DF0000D2FE5D398F80000400608D53CB1019896
:103E000030F8160018B1FF2000F0FF091DE0A9F1FD
:103E10000100F9E7204601F081FC009988421BD09F
:103E2000A869C17AC9070CD10A2102E015E0491E30
:103E300006D314F8012B10F8013BD21AF7D000E09A
:103E400052B14FF0FF09A5F824A00021029800F01C
:103E500009F806003FF479AF3046BDE8FE8F000058
:103E6000825B00082DE9F04100F580540F46E6889A
:103E7000761C3004000C38D0216991B3206800F51D
:103E8000805253895B09B6FBF3F503FB1563002BE6
:103E900067D1491C2161E16821B3538992785B099C
:103EA000B6FBF3F3521E13425BD100F039FF054617
:103EB00001281FD9681C39D0206841F21401095823
:103EC000A94248D86FB1E168FFF7B9FD05000FD0EE
:103ED000012D0FD0681C29D0206801F080FC28BB80
:103EE0000AE002E01089B0423BD80420BDE8F0812E
:103EF0000720FBE70220F9E741F20A0120680A5A8D
:103F0000002101F01EFB29462068FFF78AFD216889
:103F1000002701F580514FF00108C8620FE000BF93
:103F200080F80480206801F05AFC08B10120DDE728
:103F3000206800F58050C16A491C7F1CC16220685E
:103F400000F580508178B942EAD8216801F58051A6
:103F5000C96AC91BC162E56029462068FFF761FD97
:103F60002061E68041F20A012068095A4909B6FB3E
:103F7000F1F201FB126100EB411060610020B5E736
:103F80002DE9F14F84B00C22049C684604F580545E
:103F9000A769266A394601F0CBFA9DF80B00C007E5
:103FA00018D00020F872012520622B46324669465F
:103FB000384600F075FE0498FFF7B4FE10B96D1C8A
:103FC000642DF2D3642D0BD004280AD19DF80B0088
:103FD000F87226629DF80B0080070FD5002004E0E0
:103FE000072005B0BDE8F08F401C36F810100029FE
:103FF000FAD10D211930B0FBF1F600E00126049D45
:104000000021284600F09CF8A8B94FF0000805F5FB
:1040100080573969386801F09BFA60B9786900788F
:10402000E5280BD050B14FF0000801212846FFF7DA
:1040300019FF0028EDD0042812D012E008F1010881
:104040003046B045F1D1461E5FEA060A59D0E188F4
:104050000498A1EB0A0100F073F8050003D06BE0AF
:104060000720054668E0A06901F058FB039021692C
:10407000206801F06DFA05005ED16169D4F82090E6
:10408000039848730F20C8720020087388760AF0DE
:10409000FF0BC876ABF1010000EB800202EBC0051C
:1040A00000234FF6FF7E254E4A1C01E0604503D0F9
:1040B00039F81500F4466D1CF75CC85516F80380F6
:1040C000070A08F8027000B960465B1C0D2BEDD39F
:1040D000704502D039F8150008B94BF0400B81F853
:1040E00000B02168012001F5805108710021049879
:1040F000FFF7B8FE05001FD1AAF101005FEA000A30
:10410000B5D12169206801F023FA050014D12022DD
:104110000021606901F015FAD4E905010B2201F0D4
:1041200007FAA0696169C07A00F018000873216875
:10413000012001F580510871284652E7825B000892
:1041400070B500F580540D46E180A368012B42D084
:10415000206800F58050416999423CD923B9017823
:10416000032906D1436A23B1418980784E09464329
:1041700012E00189A9422ED9406A13E000F0D0FD77
:104180000346401C25D0022B25D3206800F5805023
:10419000406998421FD9AD1B2068B5421946EDD23F
:1041A000FFF73FFCE360B0B121680A4601F580519A
:1041B0004B895B09B5FBF3F318442061488940093A
:1041C000B5FBF0F100FB115002EB401060610020E4
:1041D00070BD012070BD022070BD0000084910B5FF
:1041E0000B5C002253B901220A540A1801EB80002B
:1041F000127A40680168104688470246104610BD92
:104200001025002030B4054C231804EB80001B7AE5
:10421000406804691846A44630BC60471025002059
:1042200030B4054D2C1805EB8000247A4068856871
:104230002046AC4630BC604710250020044A1118C7
:1042400002EB8000097A4068426808461047000087
:104250001025002030B4054D2C1805EB8000247A81
:104260004068C5682046AC4630BC60471025002039
:1042700010B5274C27A0FEF731F8D4E900122FA083
:10428000FEF72CF82068A0F10050B0F5A04F01D93E
:1042900034A007E01E49606849420844B0F5605FF9
:1042A00004D93CA0BDE81040FEF718B845A0FEF7C1
:1042B00015F84FF4FA70FDF735FD72B64848FEF771
:1042C0002AFE47485838FEF701FBFEF7BBF8FDF71A
:1042D00019FD4FF0E0210020086148618861411E0E
:1042E000820002F1E022C2F88012401C0828F7DBAD
:1042F0003C48016821F4E02101603A491C390C6016
:10430000206880F308886068BDE81040004700001E
:1043100000C80008507265706172696E6720746F22
:10432000206A756D7020746F206170706C696361B4
:1043300074696F6E2E2E2E0A0000000046696E61B1
:104340006C20636865636B202D2053503A203078D1
:104350002530386C582C2050433A2030782530389E
:104360006C580A004552524F523A20496E76616CA1
:10437000696420737461636B20706F696E74657219
:10438000212041626F7274696E67206A756D702EAC
:104390000A0000004552524F523A20496E76616C35
:1043A00069642072657365742068616E646C6572FF
:1043B000212041626F7274696E67206A756D702E7C
:1043C0000A0000005374617274696E672061707036
:1043D0006C69636174696F6E2E2E2E0A00000000F6
:1043E0009800002024ED00E070B50D464A1E0446FA
:1043F00001460BA0FDF772FFFDF744FD4FF000668C
:1044000006E000BF06EB842000F0E2FB641CE4B28F
:10441000AC42F7D3BDE870400AA0FDF75FBF0000D3
:1044200045726173696E6720666C617368207061A4
:1044300067657320256420746F2025642E2E2E0A54
:1044400000000000466C617368206572617365202E
:10445000636F6D706C65746564210A0010B5044665
:1044600000F001FA00280DD1204601F0E1F9002802
:1044700008D104F58054A06AFFF736FC002801D16A
:104480000021216010BD00002DE9F74181B0904668
:1044900002980090684600F0B8FC040003D50B2099
:1044A00004B0BDE8F0810F4E002756F824502DB11E
:1044B0002846FFF78DFA05F580552F7001980028E2
:1044C00002D04FF480510F5446F8240002D0B8F1C6
:1044D000010F01D00020E3E7002202A901A800F0AB
:1044E00041FADDE73C0000202DE9F74FADF5825D94
:1044F00098B100F580564FF0000802F01F0741F216
:10450000440127F0010269440DF58050C6F800808F
:1045100000F028FA040006D0D8E0092013B00DF509
:10452000805DBDE8F08F41F228010DF580506944AF
:10453000816168490162EB46416C584600F07AFBA4
:1045400004000DF5805045690BD11DB1780803D0EA
:10455000012102E0062404E000215846FFF704FA96
:10456000044617F01C0F75D04FF0010AECB1042C73
:1045700014D158490020183902E0401C022805D205
:1045800000EB400251F82220002AF6D1022803D085
:104590005846FFF7F5FC00E0122004460DF5805068
:1045A00047F00807456954B190E0E87A10F0110F20
:1045B00001D007248AE0780701D5082486E038076F
:1045C00056D500F020FCA873010AE973010C297488
:1045D000000E687485F80B8085F81C8085F81D80B6
:1045E00085F81E800DF5805085F81F8000682946EB
:1045F00000F076FC81460021284601F087F80DF591
:104600008050B9F1000F006800F5805080F804A0D8
:104610002CD00DF580504946006800F58050D0F848
:104620002CA00DF58050006801F03DF804004DD13C
:104630000DF58050A9F10101006800F58050C160BE
:104640000DF580505146006800F082FF04000BD049
:104650003CE0FFE7D4BBE87AC10601D5042435E08D
:10466000B90701D5C007A4D1380701D547F0200705
:104670000DF58050006800F58050C06AC6E9070556
:10468000780801D0012100E00021584600F0DCFB51
:10469000B062E8B1B7710DF5805086F807804746E3
:1046A0000068294600F01CFC3061287FD5F81D10F9
:1046B00040EA0120C6E90270B7610DF580507762CB
:1046C0000068306000F58050C088B080204625E743
:1046D0000224FBE7102300202DE9F04F884687B025
:1046E0000021994615468346196001F0A1F800287B
:1046F00012D10BF58054E07900280DD1A079C007C4
:1047000009D0D4E90201081A01274FF0020A8542B4
:1047100000D90546A2E0072007B0BDE8F08F206869
:10472000A16800F580535E89B1FBF6F206FB121218
:10473000002A73D1B1FBF6F29B785B1E1A4012F08F
:10474000FF0610D129B1626A2AB15846FFF752F923
:1047500004E0206902E0616900F0E2FA02281FD358
:10476000411C55D0606161692068FFF75AF9B8B102
:1047700030440090206800F580504189B5FBF1F18C
:10478000039151B3721881788A4201D9891B039130
:1047900040784146039B009AFFF742FDC0BB03E00F
:1047A00084F807A00220B7E7A07940060ED5A169DA
:1047B0000098081A0399884208D2216801F58051AF
:1047C0004A89594600FB028000F0B2FE206800F5DD
:1047D000805046890398464336E0A26900998A4290
:1047E0001AD0A179490609D5407801235946FFF727
:1047F00031FD68B9A07920F04000A0712068012344
:1048000000F5805059464078009AFFF709FD18B12D
:10481000E771012080E701E00098A0612068A168AD
:1048200000F580504089B1FBF0F200FB1212861AAD
:10483000AE4200D92E46B1FBF0F200FB12115944F2
:104840003246404600F074FEA068B0443044A06098
:10485000D9F800008119AD1BC9F80010002D7FF4B4
:104860005EAF002058E770B5054600F0E1FF002874
:1048700011D105F58054A1798A060CD548060FD5CB
:104880002068012300F5805029464078A269FFF78F
:10489000E1FC08B1012070BDA07920F04000A071BA
:1048A000E169206800F054FE0028F4D1256AE87A16
:1048B00040F02000E872207B2877A089000A687702
:1048C000E068000CA877E068000EE87728462169C8
:1048D00000F01CFF00F097FAA875010AE975010CB9
:1048E0002976000E68760020A874E874A07901216A
:1048F00020F02000A071206800F580500171206830
:10490000BDE8704000F017BF802804D30B4A51B1B6
:10491000FF2801D90020704702EB4000A0F580502D
:10492000B0F8000F704732F81130834203D0491CB1
:1049300089B28029F7D38031C8B27047BC5B0008C8
:104940000021064B00E0491C33F81120002A04D056
:104950008242F8D1024830F811007047BC5C000870
:104960009C5E00082DE9FF5F4FF0000B0546C0F884
:1049700000B01746084600F048FA060003D50B20A1
:1049800004B0BDE8F09F8F4850F826409CB12C60E1
:1049900004F58055287820B16878FFF74FFCC107EF
:1049A0000BD085F800B0F0B26870FFF717FCC107B4
:1049B00008D00320E4E70C20E2E70FB1400704D45D
:1049C0000020DDE71FB1400701D50A20D8E741F2FA
:1049D0000A01621868780221FFF714FC78BB688925
:1049E000B0F5007F34D3B0F5805F31D80026314672
:1049F0002046FEF781FF012826D100204FEA0D0254
:104A000004EB001191F8C23101F5DF712BB10B7A83
:104A1000D1F8091043EA012100E0002142F82010FA
:104A2000401C0428ECD300274FEA020858F82760FE
:104A300036B131462046FEF75FFF10B90AE007E0C5
:104A400002207F1C042FF1D3032801D0F0BB01E02A
:104A5000012095E7B4F80B00B5F80AC060455FD1B6
:104A6000E18A29B994F82400D4F8251040EA0121FC
:104A7000A961207C8A46E870012801D002284FD124
:104A800000FB01F9607BA87000B3411E084247D1CA
:104A9000B4F811104FEA5C12B1FBF2F302FB1313EE
:104AA00029819BB9B4F813702FB994F82030D4F849
:104AB000217043EA0727E38943B1B1FBF2F803EB26
:104AC0000902424497422BD3BF1A00E028E0B7FB0B
:104AD000F0F028B3012740F6F678404500D30227CE
:104AE0004FF6F678404500D30327801C3244AA6273
:104AF00033446861C5E90763032F13D081B103EB29
:104B000009016962022F18D000F0010100EB40009A
:104B100001EB5000401E6044B0FBFCF151450ED942
:104B20000D202DE70029FBD194F82C10D4F82D206E
:104B3000800041EA02216962ECE74000EAE74FF0B9
:104B4000FF302861E86080206871032F2ED1208E0D
:104B500001282BD12046711C00F0FAFC30BB85F8EF
:104B600005B0B4F8FE01A0F52A4155391ED12078D0
:104B7000D4F8011040EA01201349884216D194F874
:104B8000E401D4F8E51140EA0120104988420DD132
:104B900094F8E801D4F8E91140EA0120286194F87A
:104BA000EC01D4F8ED1140EA0120E86005492F70CE
:104BB000091F0888401C0880E8802046FEF708FF8F
:104BC000FEE600003C0000205252614172724161D9
:104BD00000B585B004A90290002000900120039048
:104BE0006846FDF7B1F805B000BD2DE9F041154666
:104BF0000E4607464FF00108002407E03019391926
:104C000002884046D30FFDF7FDF8A41C601CA842A3
:104C1000F4D3E8070CD07019791910F8010C40F49E
:104C20007F424046BDE8F041D317491EFDF7EAB880
:104C3000BDE8F08173B50546019801782F2901D0B0
:104C40005C2901D1401C019005F580540026A66026
:104C500001980078202805D200212846FFF770FA35
:104C600066617CBD01A92846FEF73CFF0028F8D10B
:104C70002846FFF757F8A169C97A28B10428F0D16E
:104C80004907EED405207CBD4907FCD46169C87A88
:104C9000C006F7D5206800F023F9A060E2E7000025
:104CA0007CB516461C4605460B2200F041FC052C3F
:104CB00011D91A4A0CE00021B61C2346044663F3BE
:104CC0005F044008E30300D55440491C1029F4D385
:104CD00030880028EFD107214FEA0D0204F00F00C1
:104CE0003030392800D9C01D5054491E2409F5D14F
:104CF0007E205054002000E0401C884202D22B5CF1
:104D0000202BF9D1082902D2535C491C00E0202352
:104D10002B54401C0828F5D37CBD00002110010055
:104D20002DE9F0470D46074602290DD307F58054BB
:104D30006069A84208D920784FF0FF36012807D0D3
:104D4000022832D0032844D001263046BDE8F0873F
:104D5000618905EB5508B8FBF1F0216A014438463A
:104D600000F0F6FB0028F0D16189B8FBF1F201FBFD
:104D7000128008F1010817F80090B8FBF1F0216AE1
:104D80000144384600F0E4FB0028DED16189B8FB1D
:104D9000F1F201FB1280395C49EA0120E90701D0F8
:104DA0000609D2E7C0F30B06CFE76089216A400805
:104DB000B5FBF0F00144384600F0CAFB0028C4D12E
:104DC00061896800B0FBF1F201FB120038440688EB
:104DD000BBE76089216A8008B5FBF0F001443846E2
:104DE00000F0B6FB0028B0D16189A800B0FBF1F259
:104DF00001FB120038440178D0F8010041EA00209C
:104E000020F07046A1E70020704710B504464FF02F
:104E1000FF302268002A13D0114600E0491C0B78AD
:104E2000202B0ED33A2BF9D112F8013B303B0A2B41
:104E300006D28A4204D1002B02D1491C18462160B7
:104E400010BD002010BD0000F0B500F580532348D0
:104E50001C68002202EB420550F82560A64209D1E9
:104E600000EB85059F686E68BE4203D12D89DE8800
:104E7000B54202D0521C022AECD3022A18D10022D9
:104E800002E0521C022A05D202EB420550F82550DE
:104E9000002DF6D1022A13D002EB420540F825403E
:104EA00000EB85049E686660DB88238100236381B4
:104EB000002902EB420100EB8101498902D019B1BE
:104EC0000020F0BD491C01E04FF4807102EB420369
:104ED00000EB83004181501CF0BD0000F82200204F
:104EE000024602F58052488B1278032A02D1898A41
:104EF00040EA0140704700002DE9F04105463C4F73
:104F000000263CA0FDF7EAF9012241A14148FFF744
:104F1000BBFA414C011E207001D040A00BE045A01F
:104F2000FDF7DCF9012229464748FFF7DDFA20703A
:104F3000011E03D045A0FDF7D1F956E04948C568E8
:104F400049A02946FDF7CAF985B1B5F5605F03D9D7
:104F500029464CA0FDF7C2F97F213220FFF744FA21
:104F600053A0FDF7BBF94FF4807823E058A0FDF77C
:104F7000B5F93548FFF772FA37E0274B39491B1D61
:104F800042462C313048FFF7A7FB207018BB6268FF
:104F90000AB3344938462C31FFF727FE60680744CE
:104FA0000644B00501D0AE4204D12A4631464CA099
:104FB000FDF794F9AE42E0D32348FFF74FFAFCF730
:104FC00017FFAE420CD14DA0FDF788F900F046FC6A
:104FD0000120BDE8F081C1B24FA0FDF77FF9EBE7FA
:104FE0002A46314650A0FDF779F90020F1E700008C
:104FF00000C800085374617274696E672066697234
:105000006D77617265207570646174652E2E2E0A4D
:1050100000000000E0000020000000205344206D4C
:105020006F756E74206661696C65643A2025640A48
:105030000000000053442063617264206D6F756E40
:10504000746564204F4B0A001011002046696C659E
:10505000206F70656E206661696C65643A20256416
:105060000A000000102100204669726D77617265A8
:105070002073697A653A20256C75206279746573AE
:105080000A0000005741524E494E473A2046696C8B
:105090006520746F6F206C617267652028256C75C0
:1050A000206279746573203E2031344B42290A0016
:1050B00057726974696E67206669726D776172658F
:1050C00020746F20666C6173682E2E2E0A0000001B
:1050D00046696C6520697320656D707479210A00DA
:1050E00050726F67726573733A20256C752F256C4B
:1050F000752062797465730A000000004669726D5C
:1051000077617265207570646174652053554343FF
:10511000455353210A000000526561642065727294
:105120006F723A2025640A005570646174652046E8
:1051300041494C45442120256C752F256C75206212
:10514000797465730A000000FDF744F8FEF7EDF985
:10515000FDF7DCFFFEF734F8FDF7CAFF4B484A497C
:105160000C2201604FF4E131416000218160C16097
:10517000C0E904128161C161FDF7E8FE08B172B6B1
:10518000FEE743A0FDF7AAF8AFF243014AA0FDF7FE
:10519000A5F8514C51A02146FDF7A0F84D2159A08A
:1051A000FDF79CF85EA0FDF799F82068401C0CD034
:1051B0006068401C09D0214664A0FDF78FF8D4E94F
:1051C00000126DA0FDF78AF802E072A0FDF786F8E4
:1051D0007AA0FDF783F87E4C02212046FCF7E2FF1F
:1051E0000028F9D13220FCF79DFD02212046FCF772
:1051F000D9FF0028F0D177A0FDF770F87FA0FFF766
:105200007BFE00282DD080A0FDF768F885A0FDF773
:1052100065F892A0FDF762F8FCF7CEFF054641F273
:1052200088360FE002212046FCF7BCFF38B9322057
:10523000FCF778FD02212046FCF7B4FF58B164204A
:10524000FCF770FDFCF7B8FF401BB042EAD38DA01D
:10525000FDF744F80DE094A0FDF740F8FFF708F8DB
:1052600007E09EA0FDF73AF8A2A0F1E70A20FCF7BC
:1052700059FD02212046FCF795FF0028F6D0A5A095
:10528000FDF72CF8A8E70000004800409800002037
:105290000A3D3D3D2053544D333220534420436159
:1052A000726420426F6F746C6F6164657220763235
:1052B0002E30203D3D3D0A00426F6F746C6F61647B
:1052C00065722072756E6E696E672061743A203067
:1052D000782530386C580A0000C800084170706C9E
:1052E00069636174696F6E2077696C6C20626520F8
:1052F0006C6F616465642061743A203078253038C1
:10530000580A0000417661696C61626C65206170C9
:10531000702073706163653A202564204B420A0057
:1053200050726573732050423120746F2075706421
:10533000617465206669726D776172652066726F4F
:105340006D206D61696E2E62696E0A004578697321
:1053500074696E67206170706C69636174696F6EE7
:1053600020646574656374656420617420307825F9
:105370003038580A0000000053503A203078253069
:10538000386C582C2050433A2030782530386C58EF
:105390000A0000004E6F206170706C69636174696F
:1053A0006F6E20666F756E64202D20666C61736869
:1053B00020697320656D7074790A0000426F6F7404
:1053C0006C6F61646572207265616479210A0A00FC
:1053D000000C01400A2A2A2A20504231205052450E
:1053E00053534544202D205374617274696E6720B5
:1053F000557064617465202A2A2A0A006D61696EFD
:105400002E62696E000000002A2A2A20555044416D
:105410005445205355434345535346554C202A2A5F
:105420002A0A000050726573732050423120616770
:1054300061696E2077697468696E203520736563D1
:105440006F6E647320746F20737461727420617066
:10545000706C69636174696F6E0A00004F72207727
:1054600061697420746F2072657475726E20746F38
:1054700020626F6F746C6F61646572206D6F64651C
:105480000A00000054696D656F7574202D207374D7
:105490006179696E6720696E20626F6F746C6F61ED
:1054A0006465720A000000005365636F6E642070CB
:1054B00072657373206465746563746564202D2060
:1054C0007374617274696E67206170706C69636176
:1054D00074696F6E2E2E2E0A000000002A2A2A20E0
:1054E000555044415445204641494C4544202A2AC0
:1054F0002A0A0000436865636B205344206361728D
:105500006420616E642074727920616761696E0A3B
:1055100000000000526561647920666F72206E653C
:105520007874206F7065726174696F6E0A0A00008A
:1055300004E000BF11F8013B00F8013B521EF9D214
:105540007047C9B201E000F8011B521EFBD2704740
:105550002DE9F04100F580540746E06A0E4600252B
:10556000B0420ED0384600F03AF9050009D1607813
:10557000012332463946FEF753FE08B16E1E01255F
:10558000E6622846BDE8F0812DE9F04717460D4652
:105590000646022904D306F580546069A84202D861
:1055A0000220BDE8F087217807F0FF094FF0010ADB
:1055B000012924D002295DD00329F1D16089216A13
:1055C0008008B5FBF0F001443046FFF7C1FF00282A
:1055D000E7D16289A900B1FBF2F302FB13118A192A
:1055E0004FF07043D2F8011003EA012139431170E2
:1055F0000B0A53700B0C9370090ED17050E0618947
:1056000005EB5508B8FBF1F0216A01443046FFF77D
:105610009FFF0028C5D16189B8FBF1F201FB128020
:10562000304408F10108E90703D0017869F31F113C
:1056300000E03946017084F804A06189B8FBF1F0FC
:10564000216A01443046FFF783FF0028A9D162890F
:10565000B8FBF2F302FB13813144EA0702D0C7F32F
:10566000071205E00A78C7F3032302F0F0021A4399
:105670000A7015E06089216A4008B5FBF0F001442A
:105680003046FFF765FF00288BD162896900B1FBC6
:10569000F2F302FB131131443A0A81F800904A7088
:1056A00084F804A07DE72DE9F0410F4680460229E9
:1056B00018D308F580556869B84213D900261FE051
:1056C00039464046FFF72CFB04001CD0012C09D0C2
:1056D000601C09D0002239464046FFF755FF0600FE
:1056E00011D103E002260EE001260CE02869411CDE
:1056F00005D0401C2861687940F001006871274698
:105700006869B842DCD83046BDE8F08181760A0A83
:10571000C2760A0C0275090E4175704701460020D9
:105720000B22430803EBC01011F8013B521E184432
:10573000C0B2F6D1704770B5044600F050F80600CC
:105740004BD104F58055287803283FD1687901288A
:105750003CD16A8900212046FFF7F3FE552084F8EA
:10576000FE01AA2084F8FF015220207060706120A1
:10577000A0704121E170722284F8E42184F8E521CF
:1057800084F8E61184F8E701286984F8E801010A41
:1057900084F8E911010C84F8EA11000E84F8EB0199
:1057A000E86884F8EC01010A84F8ED11010C84F832
:1057B000EE11000E84F8EF01EA690123521CEA623F
:1057C00068782146FEF746FD00206871002268785F
:1057D0001146FEF717FD00B10126304670BD2DE9D8
:1057E000F04100F58054804620790027E8B1E56A51
:1057F000607801232A464146FEF72CFD08B10127B7
:1058000013E000202071206AA169281A88420CD276
:10581000E67808E0A0690123054460782A464146FD
:10582000FEF718FD761E022EF4D23846BDE8F08150
:1058300010B580B100F58050016861B101F580516B
:105840000A7842B1CA888088824204D14878FEF73B
:10585000F5FCC00700D0092010BD000070B5244C35
:1058600024A0FCF73BFD21462BA0FCF737FD32A01E
:105870002168FCF733FD36A06168FCF72FFD206836
:10588000A0F10050B0F5A04F01D837A000E03CA037
:10589000FCF724FD1649606849420844B0F5605F92
:1058A00001D83EA000E043A0FCF718FD48A0FCF79B
:1058B00015FD00254FEA040654F8252006EB850166
:1058C0004BA0FCF70BFD6D1C082DF5DB2068411C7F
:1058D00006D061684A1C03D010B109B149A000E0AC
:1058E00054A0FCF7FBFCBDE870405CA0FCF7F6BCE4
:1058F00000C800080A3D3D3D204150504C494341FD
:1059000054494F4E20564552494649434154494F08
:105910004E203D3D3D0A00004170706C696361742A
:10592000696F6E20616464726573733A2030782504
:105930003038580A00000000537461636B20706FA8
:10594000696E7465723A2030782530386C580A00D8
:1059500052657365742068616E646C65723A2030BC
:10596000782530386C580A00537461636B20706F6F
:10597000696E7465723A2056414C49440A00000031
:10598000537461636B20706F696E7465723A20495D
:105990004E56414C4944210A00000000526573658F
:1059A000742068616E646C65723A2056414C4944BB
:1059B0000A00000052657365742068616E646C654E
:1059C000723A20494E56414C4944210A00000000D9
:1059D0004669727374203332206279746573206F64
:1059E00066206170706C69636174696F6E3A0A0059
:1059F00030782530386C583A2030782530386C585B
:105A00000A0000004170706C69636174696F6E20F8
:105A10006170706561727320746F20626520666CBE
:105A2000617368656420636F72726563746C790A70
:105A3000000000005741524E494E473A20417070D5
:105A40006C69636174696F6E206D6179206E6F742B
:105A50002062652076616C6964210A003D3D3D202D
:105A6000454E4420564552494649434154494F4EBC
:105A7000203D3D3D0A0A000010B500290AD00878F3
:105A8000002807D005487844FBF78AFC002801D09D
:105A9000002010BD0248784410BD0000120700002D
:105AA0000A07000010B500290AD00878002807D09E
:105AB00005487844FBF774FC002801D0002010BD95
:105AC0000248784410BD000002070000FA060000FA
:105AD000FBF777B8FBF7ACB9010202030405060730
