:020000040800F2
:10C80000E006002035CA00081FEE000871ED0008A0
:10C810001DEE00087DE30008F3EF000800000000B3
:10C8200000000000000000000000000023EE0008EF
:10C830007FE300080000000021EE000825EE00085C
:10C840004FCA00084FCA00084FCA00084FCA000864
:10C850004FCA00084FCA00084FCA00084FCA000854
:10C860004FCA00084FCA00084FCA00084FCA000844
:10C870004FCA00084FCA00084FCA00084FCA000834
:10C880004FCA00084FCA00084FCA00084FCA000824
:10C890004FCA00084FCA00084FCA00084FCA000814
:10C8A0004FCA00084FCA00084FCA00084FCA000804
:10C8B0004FCA00084FCA00084FCA00084FCA0008F4
:10C8C0004FCA00084FCA00084FCA00084FCA0008E4
:10C8D0004FCA00084FCA00084FCA00084FCA0008D4
:10C8E0004FCA00084FCA00084FCA000800F002F8FB
:10C8F00000F090F80AA090E8000C82448344AAF16A
:10C900000107DA4501D100F085F8AFF2090EBAE867
:10C910000F0013F0010F18BFFB1A43F00103184773
:10C9200090290000B0290000103A24BF78C878C1CF
:10C93000FAD8520724BF30C830C144BF04680C6025
:10C94000704700000023002400250026103A28BF6D
:10C9500078C1FBD8520728BF30C148BF0B60704771
:10C960006E2900F08981702900F0D382662902F0D7
:10C970000784652902F00484672902F00184612993
:10C9800002F0008403681B0A28BF41F08001692976
:10C9900000F03681642900F03381752900F0308180
:10C9A0006F2900F06182782900F09F82E92900F068
:10C9B000FB81E42900F0F881F52900F0F581EF29E9
:10C9C00000F05E82F82900F09E820368DB0928BF30
:10C9D00041F08001632900F09F87732900F0A4874C
:10C9E000E32900F0AF87F32900F0B48700207047F7
:10C9F0001FB501F001F804000020002102F0AAFB9D
:10CA0000401C60600020002102F08EFBE0601FBD32
:10CA100010B510BD00F0C2FF1146FFF7E9FF02F0AC
:10CA200015FB01F09BF803B4FFF7F2FF03BC01F024
:10CA3000E3F800000948804709480047FEE7FEE7A1
:10CA4000FEE7FEE7FEE7FEE7FEE7FEE7FEE7FEE7BE
:10CA500004480549054A064B7047000079EE000876
:10CA6000EDC80008E0000020E0060020E002002001
:10CA7000E00200207CB51D4616460C00009001D057
:10CA80002044401E074B7B442A46694601903046AD
:10CA900000F00BF905461CB10020694600F018F9BA
:10CAA00028467CBD5102000010B5431C02E010F87E
:10CAB000011B71B18107FAD14FF0013202C88C1A03
:10CAC0008C4314EAC211F9D0C01A0A0603D0C01E62
:10CAD00010BDC01A10BD0A0401D0801E10BD09028D
:10CAE000FCD0401E10BD4FF0000200B51346944626
:10CAF0009646203922BFA0E80C50A0E80C50B1F1B6
:10CB00002001BFF4F7AF090728BFA0E80C5048BFC9
:10CB10000CC05DF804EB890028BF40F8042B08BF67
:10CB2000704748BF20F8022B11F0804F18BF00F863
:10CB3000012B704770477047704770B50446856990
:10CB40000068C10601D5302600E02026C00707D0C6
:10CB500070BDD4E9012130469047206A401C206214
:10CB60006D1EF6D570BD70B5044685690078C007A6
:10CB700007D170BDD4E9012120209047206A401CD4
:10CB800020626D1EF6D570BD09684A0501D540B218
:10CB90007047C905FCD500B2704709684A0501D540
:10CBA000C0B27047C905FCD580B2704770B50C465D
:10CBB0000546012A05D02878800600D5EA690023B9
:10CBC00002E0012305E05B1C934202D2E05C0028F6
:10CBD000F9D1A869E618C01AA861286A1844286221
:10CBE0002846FFF7AAFF04E0D5E9012114F8010B5C
:10CBF0009047B442F8D32846FFF7B5FF70BD000058
:10CC00002DE9F0410646002410687529314616A525
:10CC100010D0FFF7B9FF002802DA404213A507E061
:10CC200031688A0701D512A502E0490704D511A58C
:10CC3000012401E0FFF7B1FF00210A2206F12407D9
:10CC400009E0B0FBF2FCB0FBF2F302FB1C00303059
:10CC500078541846491C0028F3D123462A4630460A
:10CC6000BDE8F04100F069BA000000002D000000AE
:10CC70002B0000002000000011680268006A5305C4
:10CC800001D508700AE0D30501D5088006E0130637
:10CC900003D5C217C1E9000200E008600120704717
:10CCA00001694A1C02610878704700B58FB0CDE970
:10CCB00001310021059105497944CDE90310114660
:10CCC000684600F031F90FB000BD0000E5FFFFFF3E
:10CCD0000A6802F8010B0A607047D1E900239A4202
:10CCE00002D2531C0B601070704700002DE9FF5FEB
:10CCF00015468A460446DFF8AC80F8440027D8E998
:10CD000000103E46CDE9001010E03AF816106A46D1
:10CD100002A800F023FE411C07D02178890603D524
:10CD2000E269391891420DD80744761C20788006B4
:10CD300002D5E069B84205DDAE42E6DB3AF81600FE
:10CD40000028E2D1A069C01BA0612046FFF7F5FED4
:10CD5000D8E90010CDE90010002017E03AF81810CB
:10CD60006A4602A800F0FAFDB0F1FF3F81460BD001
:10CD700000250DF1080B05E0D4E901211BF80500A1
:10CD800090476D1C4D45F7D308F10100B042804635
:10CD9000E4DB206A384420622046FFF7E4FEBDE869
:10CDA000FF9F0000B62400002DE9F0418046D21D0F
:10CDB00022F007020025D2E90002F52915A614D0B9
:10CDC000011E72F1000106DA0023D0EB030063EBD1
:10CDD000020211A608E0D8F800108B0701D50FA6B3
:10CDE00002E0490701D50EA601251146002408F1ED
:10CDF000240704E000F05CF930323A55641C50EA34
:10CE00000102F7D12B46324621464046BDE8F041AB
:10CE100000F093B9000000002D0000002B0000007E
:10CE20002000000030B4002100F1240408E002F0EA
:10CE30000705D208303542EA4372DB086554491CC5
:10CE400052EA0305F3D10468002310A2250708D590
:10CE500004F020040C4304D0C46901230CA2641E16
:10CE6000C46130BC00F069B910B5044621461068B1
:10CE7000FFF793FE02462046BDE810400023D1E7AD
:10CE8000D21D22F00701D1E90023CBE7000000000A
:10CE900030000000F0B40D460188090502D5214C90
:10CEA0007C4402E01F4C7C440E34002100F1240637
:10CEB00008E002F00F071209E75D42EA03721B095E
:10CEC0007754491C52EA0307F3D102780023120772
:10CED00004D5702D06D009B1022311342246F0BCCE
:10CEE00000F02BB901231034F8E770B504460D4665
:10CEF00021461068FFF751FE024629462046BDE84C
:10CF000070400023C6E7D21D22F00703D3E90023B7
:10CF1000C0E70368126843F0200303600823C3617D
:10CF20000023B7E7182300002DE9F05F8946044687
:10CF30004FF0000ADFF874B1FB44C0F820A020468F
:10CF4000E1688847002874D0252806D0D4E901215B
:10CF50009047206A401C2062F1E700265F46204689
:10CF6000E16888472028054607DB312D05D278196E
:10CF700010F8200C08B10643F1E7B00701D526F000
:10CF80000406C4F81CA00027C4F818A02A2D09D054
:10CF9000284602F053F838B304EB8708303DC8F850
:10CFA000185019E059F8041B204604EB87029161E0
:10CFB000E1688847012F054618D1E069002820DA8A
:10CFC00026F020061DE0D8F8180000EB800005EBE5
:10CFD00040003038C8F818002046E1688847054608
:10CFE00002F02CF80028EED1012F0AD02E2D08D106
:10CFF0002046E16888477F1C0546022F46F0200640
:10D00000C4DBA069002803DA404246F00106A061B3
:10D01000F00701D026F010066C2D0BD0682D09D03A
:10D020004C2D39D06A2D35D0742D35D07A2D33D092
:10D0300016E038E0E1682F4620468847B8420546AA
:10D0400009D16C2F26D04FF48060E168064320465A
:10D050008847054604E06C2F1AD04FF480700643D1
:10D060000DB3A5F14100192802D8203546F4006619
:10D070004A462946204626604E46FFF771FC80B19D
:10D0800001280BD0F61D26F0070000F1080956E72D
:10D090004020E4E78020D8E70020D6E706F1040925
:10D0A0004DE7284652E7206ABDE8F09FA82200001D
:10D0B00030B5B0F10A024FEA900E71F100034EEA6A
:10D0C000817EB0EB0E0061EB91014FEA101E4EEA3B
:10D0D000017E10EB0E0041EB11114FEA102E4EEACB
:10D0E000016E10EB0E0041EB11214FEA104E4EEA9B
:10D0F000014E10EB0E0041EB1141401841F10001CF
:10D100004FEAD00040EA41704FEAD10110EB8005B0
:10D110004FEA810444EA907444EB01046D1944EB36
:10D120000404521BA3414FF0000348BF0A3200D54C
:10D1300030BD401C41F1000130BD2DE9F0470D46E6
:10D1400099469246044600F124080168880604D5F1
:10D15000E06921F01001216000E00120A84201DD1A
:10D16000471B00E00027A1697A1902EB0900081AA1
:10D17000A0612078C00602D42046FFF7DEFC00261E
:10D1800008E0D4E901211AF806009047206A401C03
:10D19000761C20624E45F4DB2078C0060AD5204676
:10D1A000FFF7CBFC06E0D4E9012130209047206A4C
:10D1B000401C2062381EA7F10107F4DC07E0D4E927
:10D1C000012118F805009047206A401C2062281EA3
:10D1D000A5F10105F3DC2046FFF7C5FC2078000629
:10D1E00002D50220BDE8F0870120FBE770472DE95A
:10D1F000FF4F0C461E464FF0FF378BB0D2E90001BF
:10D20000DDF860800A908A46C1F30A5505B93D46AB
:10D21000002108464FF00000BAF1000F00F4400072
:10D2200005DA00EB80004FF4400101EA50004FEABC
:10D230009059B9F1010F00DDB9460A9850EA4A0049
:10D240000ED044F61050A5F2FF3545432F14B8F127
:10D25000000F1ED07542291E1EDDC9F100021CE020
:10D26000B8F1010F4FF0000001D0302103E0F2438C
:10D2700005E02154401CB042FBDB30460022002177
:10D2800021540B99C1F80880C1E900200FB0BDE816
:10D29000F08FBD1B6D1CDEE74A4600DA694206A826
:10D2A00000F0EEFB06AB93E8070003AB83E8070052
:10D2B00050460A9900F0A7FC8DE80700A0F5005041
:10D2C0001F3800900398002D09DD42F21F014A46E5
:10D2D000084403A90390684600F006FF08E0A0F5A3
:10D2E00000504A461F3803A90390684600F010FF1B
:10D2F0008DE807000004000C03D04FF0FF30410818
:10D3000000E01046B8F1000F03D00022009215464D
:10D310001EE0751E05D4FFF7CBFE303262556D1E40
:10D32000F9D5B3460122084302D000227F1C04E055
:10D330002078302801D100227F1E002A099786D04C
:10D340001DE0112D07DAFFF7B3FE303262556D1C78
:10D3500050EA0102F5D1084302D00098C8B10EE0AE
:10D360000021681E05E0235C625C63542254401E69
:10D37000491C8142F7DBAB46A81B401E09900020E8
:10D3800004F80B000B98099AC0F80880C0E9002B3C
:10D390007CE711264FF0000859E72DE9F04F884649
:10D3A0000446D21D22F0070191B0D1E90001CDE978
:10D3B0000A0101F01FFE02460B98C00F01D02D207C
:10D3C00007E02068810701D52B2002E0202101EA37
:10D3D000C000032A099001D0072A05DB0346414615
:10D3E000204600F00DFB0BE12078800601D5E069B6
:10D3F00000E00620B8F1650F814606D0B8F1660F4F
:10D4000018D0B8F1670F70D131E00020B9F1110FD9
:10D41000009001DB112301E009F101030AAA01A92F
:10D420000CA8FFF7E4FEDDE90C70002609F1010508
:10D43000834647E001204B4600904FF000470AAA80
:10D4400001A90CA8FFF7D3FEDDE90DB00C995D46EC
:10D45000002610B909F101000D18B9EB050003D43D
:10D46000C0F1FF3609F10105A5EB09002BE0B9F188
:10D47000010F01DA4FF001090020B9F1110F0090FE
:10D48000484601DD112300E003460AAA01A90CA8C1
:10D49000FFF7ADFEDDE90C704D460026834620788F
:10D4A00000070AD4AB4500DA5D4601A8012D04DD72
:10D4B000411911F8011C302907D04F4502DA17F144
:10D4C000040F04DA012082460FE06D1EEEE7002F04
:10D4D00002DCED1B3E4403E0781CA84200DD7D1C0D
:10D4E000B81B00F1010A4FF000472078000703D471
:10D4F000AA4501DB4FF0FF3A0021B7F1004F0DF1D3
:10D5000043088DF8431024D002202B23002F01DA8A
:10D510007F422D230A21021EA0F1010000DC5FB131
:10D5200097FBF1FC97FBF1F201FB1C7C17460CF119
:10D53000300C08F801CDEEE7A8F101000370218856
:10D54000090501D5452100E06521A0F1010800F899
:10D55000011C09980FA9A1EB0807FF1D00B10120CC
:10D56000411901EBEA70A1693844081A401EA06114
:10D570002078C00602D42046FFF7DFFA099828B1C8
:10D58000D4E901219047206A401C20622078C0061F
:10D5900022D52046FFF7D1FA1EE0002E04DBB3456A
:10D5A00002DD01A8805D00E03020D4E90121904730
:10D5B000206A401C2062761CAAF101005FEA000A82
:10D5C0000AD100F019FAC0680168405CD4E9012171
:10D5D0009047206A401C2062281EA5F10105DCDC72
:10D5E00007E0D4E9012118F8010B9047206A401C9C
:10D5F0002062381EA7F10107F3DC2046FFF7B3FADB
:10D60000032011B043E600002DE9F04F04460D461B
:10D61000D21D22F0070089B0D0E900924846174693
:10D62000394601F0E7FC0246F80F01D02D2307E050
:10D630002068810701D52B2302E0202101EAC003E5
:10D640008DF820300BB1012000E00020032A824633
:10D6500001D0072A04DB2946204600F0D1F93DE13C
:10D660002078800601D40D2500E0E569C7F30A564D
:10D670000D2D49DA00214FEA175B08464FF00000F4
:10D68000002F00F4400007DA00EB80004FF4400167
:10D6900000EBD07001EA60008115012901DD4FF037
:10D6A000FF3100224FEA850CBCF1180F06D3134658
:10D6B000ACF118004FF08052C24003E04FF48013E9
:10D6C00023FA0CF30CF10C0CBCF1200F04D3ACF1D9
:10D6D000200C09FA0CF001E007FA0CF000294FF0D9
:10D6E000004801DD18B90FE00ED140450CD319EB0D
:10D6F00002095F4121B9404502D19F4329EA02094D
:10D70000BBEB175F00D0761C2088000502D57B4854
:10D71000784402E079487844193808AA302302F89E
:10D720000A30037C0AF10101002E0AF1020A535467
:10D730006A4602DC4FF0300101E04FF031014FF05A
:10D7400001088DF8001002D0A6F2FF3603E059EA76
:10D75000470100D06A4E002D02DC2178090704D56C
:10D760004FF002082E218DF80110C44600210BE075
:10D77000C7F303433F01C35C491C6D1E02F8083028
:10D78000052908F1010801DA002DF1DC00210CE087
:10D7900000EB1973491C1B786D1E082902F808302C
:10D7A0004FEA091908F1010801DA002DF0DC2178AF
:10D7B000890602D514E0A8F10108E04505DD02EB79
:10D7C000080111F8011C3029F5D0B8F1000F07DD70
:10D7D00002EB080111F8011C2E2901D1A8F1010862
:10D7E000002D05DD3E2102F808106D1E08F101082C
:10D7F000407C002E02F8080008F1010804DA2D2010
:10D80000764202F8080002E02B2002F808000A2104
:10D810004FF47A70864208F101080BDB96FBF0F3B7
:10D82000303302F8083096FBF0F308F1010800FBF2
:10D83000136601E0642E0CDB642096FBF0F33033BA
:10D8400002F8083096FBF0F308F1010800FB1366BC
:10D8500001E00A2E06DB96FBF1F0303002F80800FA
:10D8600008F1010896FBF1F001FB1060303002F87E
:10D870000800A16908F1010808EB050202EB0A00A3
:10D88000081AA0612078C00602D42046FFF755F997
:10D89000216A08AE01EB0A00206204E0D4E901210C
:10D8A00016F8010B9047BAF1010AF7D22078C006AA
:10D8B00002D52046FFF741F96E4609E016F8010B44
:10D8C0003E280FD0D4E901219047206A401C2062F5
:10D8D000B8F10108F2D22046FFF745F909B003205C
:10D8E000BDE8F08F206A2844206203E0D4E90121DA
:10D8F000302090476D1EEBD3F8E70000F41A0000CB
:10D9000002FCFFFF10B5436913B1AFF3008001E0E3
:10D91000FFF74CF9012010BD127800F124010A70C4
:10D9200000224A700122EDE711684FF0FF32E9E76B
:10D9300010B5436913B1AFF3008001E0FFF7D6F9EA
:10D94000012010BD128800F1240182840022C284CB
:10D950000122EDE711684FF0FF32E9E770B5164696
:10D960000C46054600F040F8036893F801010128D1
:10D9700006D0FF2C0FD8185D68B101202C7070BD47
:10D98000D3F807013246214603F207130344284621
:10D99000BDE8704018474FF0FF3070BD754600F08D
:10D9A000E7F8AE4605006946534620F00700854675
:10D9B00018B020B5FFF74CF8BDE820404FF0000646
:10D9C0004FF000074FF000084FF0000B21F0070167
:10D9D000AC46ACE8C009ACE8C009ACE8C009ACE8AA
:10D9E000C0098D467047000010B500F005F8001D15
:10D9F00010BD00BF6117000000487047A000002064
:10DA00002DE9F0411F46044603260168072A01F468
:10DA1000006004DB08B116A505E016A503E008B117
:10DA200015A500E015A521F010002060A069C01E1A
:10DA3000A0610FB1401EA0612046FFF77EF84FB1F4
:10DA4000D4E9012138469047206A401C2062C01C5E
:10DA5000206206E0206AFAE7D4E9012115F8010BFB
:10DA60009047761EF8D22046FFF77DF8BDE8F0819A
:10DA70004E414E006E616E00494E4600696E660072
:10DA80002DE9F047814616468AB0334878440DC8E0
:10DA90008DE80D0030487844801C03AC0DC884E844
:10DAA0000D0041F69B300844372190FBF1F290FBCA
:10DAB000F1F5A5F1800501FB12041B3C02D564427F
:10DAC000012000E00020DFF890A080460027FA4403
:10DAD000AAF1BE0A0DE0E00709D03246684607EB1E
:10DAE00047010AEB810100F013FB8DE80700641089
:10DAF0007F1C002CEFD1184F7F44AC3F18E0E807A3
:10DB000014D007EB04100DF1180A90E80E008AE813
:10DB10000E00C068F04201D198190890324606A95B
:10DB200003A800F0F5FA03AB83E807006D10641C4E
:10DB3000002DE4D132466946B8F1000F03A802D0A7
:10DB400000F0D2FA01E000F0E3FAC9E90001C9F8F7
:10DB500008200AB0BDE8F0870818000010B5044698
:10DB6000AFF300802046BDE81040FEF75CBF000028
:10DB700000487047800000204FF0013C50F8042B13
:10DB800051F8043B9A4221D1A2EB0C03934313EAD0
:10DB9000CC1317D150F8042B51F8043B9A4215D1FD
:10DBA000A2EB0C03934313EACC130BD150F8042BD4
:10DBB00051F8043B9A4209D1A2EB0C03934313EAB8
:10DBC000CC13DBD04FF00000704700BFD01A01BA71
:10DBD000B1FA81F101F0180122FA01F0CB40C1F154
:10DBE0002001DBB2C0B2C01A2CFA01F3D11A914362
:10DBF00011EAC311E6D1704701491820ABBEFEE718
:10DC00002600020070475FEA400C08BF91F0000F49
:10DC10004FEA8C234FEAC12243EA51514FEA1C508C
:10DC200018BF00F5F0404FEA300018BF41F0004146
:10DC30005FEA6C5C00F02980BCF1FF3F08BF40F058
:10DC400080407047130C06BF12044FF0100C4FF0C9
:10DC5000000C130E04BF12020CF1080C130F04BFCA
:10DC600012010CF1040C930F04BF92000CF1020C92
:10DC7000D30F04BF52000CF1010C11464FF000020B
:10DC8000A0F11F00A0EB0C00704711F0004F08BF7F
:10DC9000704731F000413FF4D5AF0B0C06BF0904CB
:10DCA0004FF0100C4FF0000C0B0E04BF09020CF1EA
:10DCB000080C0B0F04BF09010CF1040C8B0F04BFFF
:10DCC00089000CF1020CCB0F04BF49000CF1010CD0
:10DCD000CCF12003A0EB0C0022FA03F302FA0CF2C1
:10DCE00041EA030100F10100704720F07F4C80EA17
:10DCF000030023F07F47ACEB070303F57C5300F0F0
:10DD0000004003F1FF032DE980494FEA154B09B4A8
:10DD10004FEA144325EA0B4E24EA03480FF2042687
:10DD200006EB132749083E785FEA320203FB0667D9
:10DD3000C7F5000707FB06F64FEA54374FEAD64609
:10DD400006F1020607FB066CCCF1005C4FEA1C47AB
:10DD50002CEA074C07FB06F40CFB06F504EB154612
:10DD60004FEA961634BF00204FF000404FEAD137FB
:10DD700006FB07FC4FEA1C4C0CFB0BF7D21B03FB0A
:10DD80000CF761EB07010CFB0EF7B0EB074072EBF1
:10DD900017420CFB08F734BFA2EB0742B2EB074275
:10DDA00061EB17414FEA0C444FEA910706FB07FC71
:10DDB0004FEA1C4C0CFB0BF7B0EBC74072EB573231
:10DDC00003FB0CF734BFA2EBC742B2EBC74261EBD7
:10DDD00057310CFB0EF7B0EBC70072EB57720CFB20
:10DDE00008F734BFA2EBC702B2EBC70261EB577171
:10DDF000039F4FEA816141EA921104EBCC044FEAA0
:10DE0000D1374FEA826206FB07FC42EA90124FEAE2
:10DE100080604FEA1C4C0CFB0BF7D21B03FB0CF78A
:10DE200061EB07010CFB0EF7B0EB074072EB1742FA
:10DE30000CFB08F734BFA2EB0742B2EB074261EBE1
:10DE400017414FEA8C554FEA910704EB9C2406FBDF
:10DE500007FC4FEA1C4C0CFB0BF7B0EBC74072EB16
:10DE6000573203FB0CF734BFA2EBC742B2EBC742F9
:10DE700061EB57310CFB0EF7B0EBC70072EB57723A
:10DE80000CFB08F734BFA2EBC702B2EBC70261EB91
:10DE9000577115EB4C254FEA816141EA92114FEA27
:10DEA00082624FEAD13742EA901206FB07FC44F146
:10DEB00000044FEA80604FEA1C4C0CFB0BF7D21BAE
:10DEC00003FB0CF761EB07010CFB0EF7B0EB07400F
:10DED00072EB17420CFB08F734BFA2EB0742B2EB20
:10DEE000074261EB174115EB1C154FEA813141EAFE
:10DEF00092414FEA823242EA90424FEA80304FEA42
:10DF00000C7644F1000448EA03434EEA0B484FF014
:10DF1000000EB2EB080C71EB030724BF62463946D2
:10DF20004EEB0E0E4FF0000B0018524149414BEBE7
:10DF30000B0BB2EB080C71EB03077BF1000B24BF5A
:10DF4000624639464EEB0E0E4FF0000B0018524160
:10DF500049414BEB0B0BB2EB080C71EB03077BF168
:10DF6000000B24BF624639464EEB0E0E51EA020703
:10DF700018BF46F0010616EB0E7655F1000254F17B
:10DF8000000103D5BDE88901BDE80088BDE889012D
:10DF9000BDE80048B619524141EB0101A3F101036C
:10DFA000704780807F7E7D7C7B7A79787776767506
:10DFB0007473727171706F6E6E6D6C6C6B6A6A697E
:10DFC0006868676666656464636362616160605F18
:10DFD0005F5E5E5D5D5C5C5B5B5A5A595958585791
:10DFE00057565655555554545353525252515150F9
:10DFF00050504F4F4F4E4E4D4D4D4C4C4C4B4B4B4C
:10E000004A4A4A4949494848484747474746464691
:10E0100045454544444444434343434242424241CC
:10E020004141002B26D4770021D01CB54FEA370799
:10E0300003B44FF010004FF010014FF000000FBC80
:10E04000BDE810400BF1010BBBF1010F08BF5FEA07
:10E05000170722BF12F1010211F101014FF0004137
:10E0600043F1000300F0004043EA00007047F9D399
:10E070005708DAE746EA064613F1400F4FEA16461C
:10E080001FDD13F1200FDFBF16430A4600212033A6
:10E090005B42C8D0C3F1200746EA064602FA07F7FA
:10E0A0004FEA164646EA0706C3F1200722FA03F2B2
:10E0B00001FA07F721FA03F14FF0000342EA0702E1
:10E0C000B1E746EA020646EA06464FEA164646EA3F
:10E0D0000106BCBF46EA0646360C4FF000034FF07F
:10E0E00000024FF000019EE72DE9C048934630B48E
:10E0F00091E8380007C831EA400C48BF34EA430CC5
:10E1000003D5FFF7F2FDFFF78CFFF0BCBDE80088F8
:10E110002DE9C048934630B491E8380007C810F0A4
:10E12000804F08BF13F0804F03D100F005F8FFF7D0
:10E1300078FFF0BCBDE8008820F07F4780EA03004C
:10E1400023F07F4C07EB0C03A3F57C5300F0004059
:10E15000A3F1FE0392F0000F00F0B38095F0000FE2
:10E1600000F077802DE901494FEA11404FEA14464B
:10E1700021EA004800FB06FC24EA064708FB06F6F5
:10E1800007FB08F800FB07F718EB06484CEB164CAA
:10E190004FEA124B18EB07484FEA15464CEB174075
:10E1A00022EA0B4E0BFB06FC25EA06470EFB06F6A1
:10E1B00007FB0EFE0BFB07F71EEB064E4CEB164C57
:10E1C0004FF000061EEB074E4CEB174B18EB0B08FD
:10E1D00040F1000018EB0E0B58EB000840F1000076
:10E1E0008F1A4FF000013CBFC943661B14BFB5EB4B
:10E1F000040C00213CBFC943F61B4FEA17444EEA0A
:10E200008E0E27EA04454FEA1C4704FB07622CEAFE
:10E21000074C05FB07F70CFB05F604FB0CFC16EBA3
:10E22000074642EB174216EB0C4642EB1C421BEB37
:10E23000060658EB0202414146EA9E0601D5BDE8BA
:10E240000189B619524141EB0101A3F10103BDE877
:10E2500001894FEA14454FEA114724EA054621EAAD
:10E26000074C05FB07F406FB07F70CFB06F105FB63
:10E270000CFC11EB074144EB17444FEA124711EB3A
:10E280000C4144EB1C4422EA074C05FB07F206FB59
:10E2900007F70CFB06F605FB0CFC16EB074642EBFA
:10E2A000174216EB0C4642EB1C456A1854F100016C
:10E2B00048BF7047B619524141EB0101A3F1010378
:10E2C000704795F0000F37D04FEA11424FEA1447DC
:10E2D00021EA024624EA074C02FB07F106FB07F796
:10E2E0000CFB06F402FB0CFC14EB074441EB17415A
:10E2F0004FEA154714EB0C4441EB1C4125EA074C4F
:10E3000002FB07F506FB07F70CFB06F602FB0CFC0D
:10E3100016EB074645EB174516EB0C4645EB1C4242
:10E32000121951F1000148BF7047B619524141EB33
:10E330000101A3F1010370474FEA14454FEA114769
:10E3400024EA054621EA074C05FB07F106FB07F71F
:10E350000CFB06F24FF0000605FB0CFC12EB07422B
:10E3600041EB174112EB0C4251EB1C4148BF704787
:10E37000921841EB0101A3F101037047FEE77047DA
:10E3800070B5044600F00CF90546601C02D0044844
:10E390000078044400F004F9401BA042FAD370BD99
:10E3A000000000202DE9F84FDFF8B8910024A9F112
:10E3B000040B23460F2709F1040AABF1040EC9E050
:10E3C0000125A5402A40AA427DD1674ED1F804C05C
:10E3D000ACEB0608B44532D014DCBCF1030F3AD0E4
:10E3E00009DCBCF1000F2AD0BCF1010F1CD0BCF13C
:10E3F000020F31D11DE0BCF1110F17D0BCF1120F8B
:10E400002AD119E0B8F5881F19D006DCB8F5803F8D
:10E4100015D0B8F5801F1FD111E0B8F5001F0ED040
:10E42000B8F5041F18D10AE0CB6815E0CB681B1DB6
:10E4300012E0CB6808330FE0CB680C330CE08B683C
:10E440002BB1012B4FF0080303D0456104E00423F6
:10E4500002E0056100E00023FF2A01D8064601E042
:10E4600000F104064FEA840501D9A5F12005D6F88C
:10E47000008007FA05FC28EA0C0803FA05F548EACB
:10E480000508C6F800804D68ED0062D5374DAE69CD
:10E4900046F00106AE61AD6924F0030605F0010502
:10E4A0000095334D06EB050CDCF80850A607360F37
:10E4B00007FA06F825EA0805DFF8B880404503D1D9
:10E4C0004FF0000817E044E0DFF8AC80404502D18F
:10E4D0004FF001080FE0DFF8A480404502D14FF073
:10E4E000020808E0DFF89880404502D14FF00308A9
:10E4F00001E04FF0040808FA06F848EA0508CCF8ED
:10E5000008804D68D9F80060ED024D4601D51643EC
:10E5100000E096432E604D68DAF80060AD02554683
:10E5200001D5164300E096432E604D68DBF800608D
:10E53000AD035D4601D5164300E096432E604D685D
:10E54000DEF80060ED03754601D5164300E0964302
:10E550002E60641C0D682A46E5407FF431AFBDE8AB
:10E56000F88F000008040140000011100010024064
:10E570000000014000080140000C01400010014073
:10E5800000140140C26821EA02030A4043EA024142
:10E59000016170470AB1016170470904FBE700009F
:10E5A0000148806870470000000000200248816830
:10E5B000027811448160704700000020074810B5C0
:10E5C000016841F010010160032000F067F80F209E
:10E5D00000F006F800F024F8002010BD00200240F2
:10E5E00070B50D4D04464FF47A712878B1FBF0F008
:10E5F0000A490968B1FBF0F000F0ECFA48B9102CB8
:10E6000007D200222146501E00F028F800206C603E
:10E6100070BD012070BD0000000000200C00002033
:10E620000C4808B5816941F001018161816901F0FF
:10E6300001010091C16941F08051C161C06900F0E0
:10E64000805000900448416821F0E06141F0007181
:10E65000416008BD0010024000000140F0B40E4BC4
:10E660001B680C46C3F30223C3F10705042D00D930
:10E670000425191D072901D2002300E0DB1E012615
:10E6800006FA05F1491E214099409E40761E16402B
:10E690003143F0BC00F0C2BC0CED00E0064900F0D4
:10E6A000070208684FF6FF03184040EA0220034AB9
:10E6B00010430860704700000CED00E00000FA0510
:10E6C0000FB4282110B503AC0B48FEF70CFA234613
:10E6D00028210948029AFEF7CDF90748FEF7E4F928
:10E6E000054982B24FF47A73A1F1480000F0F0FAC4
:10E6F00010BC5DF814FB0000580000202DE9F04725
:10E700000F46050061D0434E306800F00700B84264
:10E7100009D2306820F0070038433060306800F0DC
:10E720000700B84251D128683B4C810712D54007F9
:10E7300003D5606840F4E06060602878000703D586
:10E74000606840F4605060606068A96820F0F00084
:10E75000084360602878C00728D06868012810D076
:10E760002168022810D0890700292EDA616821F07B
:10E77000030101436160FFF713FF804641F28839CE
:10E780000DE021688903EFE78901EDE7FFF708FF56
:10E79000A0EB0801494502D90320BDE8F087606875
:10E7A000696800F00C00B0EB810FEFD1306800F029
:10E7B0000700B8420BD9306820F0070038433060BA
:10E7C000306800F00700B84201D00120E5E7287862
:10E7D000400705D56068E96820F4E06008436060A0
:10E7E0002878000706D56068296920F4605040EA5F
:10E7F000C100606000F038F86168084AC1F3031195
:10E80000515CC8400649086006480068FFF7E8FE0A
:10E810000020C2E700200240001002409AF10008E8
:10E820000C000020040000200448054900684968E5
:10E83000044AC1F30221515CC84070470C0000201B
:10E8400000100240AAF10008044805490068496820
:10E85000044AC1F3C221515CC84070470C0000203B
:10E8600000100240AAF100080E4A51680E4801F05B
:10E870000C03042B11D0082B0FD10C48C1F3834398
:10E88000C903C05C0AD55168084AC1F34041921ED1
:10E89000515C054A5043B0FBF1F0704704494843CE
:10E8A000704700000010024000127A008AF1000850
:10E8B00000093D002DE9F84F040070D02078C04DCC
:10E8C000C00749D06868C0F38100012807D0686894
:10E8D000C0F38100022809D16868C00306D5286802
:10E8E000800339D560680028E7D035E06068B0F56E
:10E8F000803F0BD010B1B0F5A02F11D0286820F4C4
:10E9000080302860286820F4802002E0286840F4E5
:10E9100080302860606890B1FFF742FE06460AE04A
:10E92000286840F480202860F0E700BFFFF738FE39
:10E93000801B642873D828688003F7D50CE0FFF7A4
:10E940002FFE064605E000BFFFF72AFE801B642865
:10E95000F0D828688003F7D420789A4E80074FF0CB
:10E9600001094FF0000839D5686810F00C0F07D086
:10E970006868C0F38100022809D16868C00306D422
:10E980002868800714D52069012808D110E0206983
:10E99000B0B1C6F80090FFF703FE074605E00AE1B4
:10E9A000FFF7FEFDC01B0228C4D828688007F7D5F2
:10E9B0002868616920F0F80040EAC10028600DE095
:10E9C000C6F80080FFF7ECFD074604E0FFF7E8FD1E
:10E9D000C01B022823D828688007F7D420780007B6
:10E9E0002CD57948A169D9B1C0F80090FFF7D8FDBE
:10E9F000074604E0FFF7D4FDC01B02280FD8686A61
:10EA00008007F7D571484FF4FA510068B0FBF1F078
:10EA1000009000BF0098411E0091FAD20EE080E005
:10EA2000C0F80080FFF7BCFD074604E0FFF7B8FD23
:10EA3000C01B022875D8686A8007F7D42078400781
:10EA400060D5E8690027C00008D4E86940F080502C
:10EA5000E861E869012700F0805000905C48016897
:10EA6000C90513D40168834641F480710160FFF742
:10EA700097FD824606E000BFFFF792FDA0EB0A007B
:10EA800064284ED8DBF80000C005F5D5E068012801
:10EA90000AD008B1052813D0286A20F001002862A6
:10EAA000286A20F0040002E0286A40F00100286291
:10EAB000E06841F2883B98B1FFF772FD82460BE0B7
:10EAC000286A40F004002862EEE700BFFFF768FD07
:10EAD000A0EB0A0159455AD8286A8007F6D50CE000
:10EAE000FFF75EFD824605E0FFF75AFDA0EB0A0145
:10EAF00059454CD8286A8007F6D41FB1E86920F040
:10EB00008050E861E06988B36968C1F38101022936
:10EB100044D00228C6F8608004D0FFF741FD0446C7
:10EB200038E034E0FFF73CFD074604E0FFF738FD2E
:10EB3000C01B02282BD828688001F7D4206AB0F5C2
:10EB4000803F05D16868A16820F400300843686000
:10EB5000D4E908010843696821F474110843686026
:10EB6000C6F86090FFF71CFD044606E025E000BFF4
:10EB7000FFF716FD001B022809D828688001F7D589
:10EB80001BE000BFFFF70CFD001B022802D9032089
:10EB9000BDE8F88F28688001F4D40EE00128F7D092
:10EBA0006868226A00F48031914204D1616A00F4FD
:10EBB0007010884201D00120EAE70020E8E7000059
:10EBC0000010024000004242800442420C0000203B
:10EBD0000070004010B5401EB0F1807F01D30120CD
:10EBE00010BD4FF0E02460610F21601700F016FAAD
:10EBF0000020A06107202061002010BD70B5040036
:10EC000004D094F84100002510B106E0012070BD49
:10EC100084F84050204600F023F8242084F8410076
:10EC20002068C16821F40051C160204600F04CF911
:10EC30002068016921F4904101612068416921F057
:10EC40002A0141612068C16841F40051C1606564D6
:10EC5000202084F8410084F842006563002070BDE4
:10EC600030B585B0002400940194029403940068A8
:10EC70001449884224D11448C16941F48021C161FA
:10EC8000C16901F480210491816941F00801816129
:10EC900080690E4D00F0080004904FF480600090F1
:10ECA000022001900320039069462846FFF77AFB73
:10ECB000E814CDE90004694628460294FFF772FB88
:10ECC00005B030BD0048004000100240000C01407B
:10ECD0002DE9F843044690F84100984616460D4643
:10ECE000202802D00220BDE8F88385B17EB1002043
:10ECF0006064212084F84100FFF752FCA68481461D
:10ED0000E684A0682027B0F5805F02D003E00120F0
:10ED1000E9E7206910B12E4600250EE000260CE040
:10ED20008021204600F02CF9A8B9C6B116F8010BD5
:10ED300021684860E08C401EE084E08C4B464FF038
:10ED40000002CDF800800028EAD14FF040012046B3
:10ED500000F016F940B184F841700320C3E735F89C
:10ED6000020BC0F30800E3E784F841700020BAE723
:10ED7000FEE700002DE9F04186B00024244800940D
:10ED8000019402940394816941F0100181618169C9
:10ED900001F010010491816941F0200181618169D4
:10EDA00001F020010491816941F0040181618169D0
:10EDB00001F004010491816941F0080181618069D9
:10EDC000144F00F008004FF400550490002229462B
:10EDD0003846FFF7DFFBDFF8408000222521404660
:10EDE000FFF7D8FB0095022601250396CDE90154D3
:10EDF00069463846FFF7D6FA2520CDE90005CDE96A
:10EE0000024669464046FFF7CDFA06B0BDE8F081FC
:10EE1000001002400010014000080140FEE7FEE73C
:10EE200070477047FFF7C2BB10B590B02821684605
:10EE3000FDF759FE14210AA8FDF755FE02200090A7
:10EE40000120049010200024059007946846FFF7E5
:10EE500031FD08B172B6FEE70F20CDE90A040C942B
:10EE60000D9400210AA80E94FFF748FC002801D059
:10EE700072B6FEE710B010BD704701680C3151E862
:10EE8000002F22F4907241E80023002BF5D1016895
:10EE9000143151E8002F22F0010241E80023002B39
:10EEA000F5D1016B012909D101680C3151E8002F1E
:10EEB00022F0100241E80023002BF5D1202180F838
:10EEC000421000210163704770B504460068016973
:10EED000E26821F44051114301612169A0680843AF
:10EEE000616908432168CA6841F20C639A4302438E
:10EEF000CA6020684169A26921F4407111434161EF
:10EF00001E492068884202D1FFF79EFC01E0FFF70E
:10EF10008BFC00EBC00101EB0012606864218000F3
:10EF2000B2FBF0F3B3FBF1F36FF018067343B2FBDF
:10EF3000F0F5B2FBF0F605EB8305322303EB051584
:10EF4000B5FBF1F5B6FBF1F605F0F00505EB06159E
:10EF5000B2FBF0F6B2FBF0F0B0FBF1F06FF018028C
:10EF6000504306EB800003EB0010B0FBF1F021688A
:10EF700000F00F002844886070BD00000038014098
:10EF80002DE9F843984617460D460446089E24E0AE
:10EF9000701C22D0FFF704FBA0EB0800B0421AD887
:10EFA000CEB12068C168490717D5802D15D0402DF6
:10EFB00013D00168C94309070FD4016800254068D0
:10EFC00000902046FFF759FF0820606484F8405005
:10EFD0000120BDE8F8830320FBE72068006835EADC
:10EFE000000004D00020B842D2D00020F1E7012078
:10EFF000F9E7FEE7490050EAC12018BF04204A0D96
:10F0000018BF40F0010040F2FF72B2EB515F08BF41
:10F0100040F00200012808BF052070470907090ECB
:10F02000002804DB00F1E02080F80014704700F0B5
:10F030000F0000F1E02080F8141D704730380A28D6
:10F0400001D201207047002070470000FFF7B6FA98
:10F05000FFF7EAFEFFF78EFE184817490C22016001
:10F060004FF4E131416000218160C160C0E90412C8
:10F070008161C161FFF7C2FD08B172B6FEE71149B7
:10F080000F480860104D4FF400544FF47A760FA0EB
:10F09000FFF716FB21462846FFF774FA13A0FFF787
:10F0A0000FFB17A0FFF70CFB3046FFF769F91AA01A
:10F0B000FFF706FBEBE700000048004010000020CF
:10F0C00000C8000808ED00E0001001404669726DBC
:10F0D00077617265206D61696E2E62696E2072754E
:10F0E0006E6E696E67202E2E2E2E0A0054686520E3
:10F0F0004C656420746F67676C6564200D0A0000BE
:10F1000044656C61792069732072756E6E696E67F3
:10F11000202E2E2E2E0D0A0044656C617920656E1E
:10F120006465640D0A00000010B500290AD0087853
:10F13000002807D005487844FEF71EFD002801D0BE
:10F14000002010BD0248784410BD00009A01000064
:10F150009201000010B500290AD00878002807D0D5
:10F1600005487844FEF708FD002801D0002010BDB6
:10F170000248784410BD00008A01000082010000AE
:10F18000FEF70BB9FEF740BA0102020304050607B9
:10F1900008090A0B0C0D0E0F1010000000000000F3
:10F1A0000000010203040607080900000000010234
:10F1B0000304000000000000000000003031323382
:10F1C000343536373839414243444546403058009B
:10F1D00030313233343536373839616263646566CD
:10F1E0004030780004000008000000000000000229
:10F1F0000001000010303132333435363738396190
:10F200006263646566787000303132333435363786
:10F2100038394142434445465850000002400000FE
:10F22000000000A00000000005400000000000C831
:10F23000000000000C4000000000409C00000000A6
:10F24000194000000020BCBE000000003440000057
:10F25000BFC91B8E00000004B5400000504BCFD04A
:10F260006607E2CF010000006C4100003E8251AA17
:10F27000DFEEA73401000000D9420000DCB5A0E2B7
:10F280003A301F97FFFFFFFFB4450000FD25A0C8DF
:10F29000E9A3C14FFFFFFFFFFF3F00000000008018
:10F2A00000000000FF3F00000000008000000000A0
:10F2B000FCF30008000000201000000028C900082E
:10F2C0000CF4000810000020D006000044C900081B
:10F2D0001C00000043000000F8FFFFFF0C000000CE
:10F2E0000E0000000F0000002E00000010010000C2
:10F2F00043000000F8FFFFFF004040404040404016
:10F3000040404141414141404040404040404040F8
:10F31000404040404040404040050202020202029C
:10F3200002020202020202020220202020202020EB
:10F3300020202002020202020202909090909090FF
:10F3400010101010101010101010101010101010BD
:10F350001010101002020202020288888888888831
:10F36000080808080808080808080808080808081D
:10F370000808080802020202400000000000000025
:10F38000000000000000000000000000000000007D
:10F39000000000000000000000000000000000006D
:10F3A000000000000000000000000000000000005D
:10F3B000000000000000000000000000000000004D
:10F3C000000000000000000000000000000000003D
:10F3D000000000000000000000000000000000002D
:10F3E000000000000000000000000000000000001D
:10F3F000000000000000000000000000010000000C
:0CF40000100000000000000000127A0064
:040000050800C8ED3A
:00000001FF
